{
    "contractName": "States5",
    "abi": [
        {
            "constant": true,
            "inputs": [],
            "name": "bankroll",
            "outputs": [
                {
                    "name": "",
                    "type": "uint256"
                }
            ],
            "payable": false,
            "stateMutability": "view",
            "type": "function"
        },
        {
            "constant": false,
            "inputs": [
                {
                    "name": "receiver",
                    "type": "address"
                }
            ],
            "name": "disallowReceiver",
            "outputs": [],
            "payable": false,
            "stateMutability": "nonpayable",
            "type": "function"
        },
        {
            "constant": true,
            "inputs": [
                {
                    "name": "",
                    "type": "address"
                }
            ],
            "name": "lastState",
            "outputs": [
                {
                    "name": "nonce",
                    "type": "uint128"
                },
                {
                    "name": "newBalance",
                    "type": "int128"
                },
                {
                    "name": "category",
                    "type": "uint8"
                }
            ],
            "payable": false,
            "stateMutability": "view",
            "type": "function"
        },
        {
            "constant": false,
            "inputs": [
                {
                    "name": "addr",
                    "type": "address"
                }
            ],
            "name": "deauthorize",
            "outputs": [],
            "payable": false,
            "stateMutability": "nonpayable",
            "type": "function"
        },
        {
            "constant": false,
            "inputs": [
                {
                    "name": "receiver",
                    "type": "address"
                },
                {
                    "name": "numTokens",
                    "type": "uint256"
                },
                {
                    "name": "nonce",
                    "type": "uint128"
                }
            ],
            "name": "deposit",
            "outputs": [],
            "payable": false,
            "stateMutability": "nonpayable",
            "type": "function"
        },
        {
            "constant": false,
            "inputs": [
                {
                    "name": "amount",
                    "type": "uint256"
                }
            ],
            "name": "withdraw",
            "outputs": [],
            "payable": false,
            "stateMutability": "nonpayable",
            "type": "function"
        },
        {
            "constant": false,
            "inputs": [
                {
                    "name": "newMax",
                    "type": "uint256"
                }
            ],
            "name": "setMaxWithdrawal",
            "outputs": [],
            "payable": false,
            "stateMutability": "nonpayable",
            "type": "function"
        },
        {
            "constant": false,
            "inputs": [],
            "name": "close",
            "outputs": [],
            "payable": false,
            "stateMutability": "nonpayable",
            "type": "function"
        },
        {
            "constant": true,
            "inputs": [
                {
                    "name": "",
                    "type": "address"
                }
            ],
            "name": "withdrawAfter",
            "outputs": [
                {
                    "name": "",
                    "type": "uint256"
                }
            ],
            "payable": false,
            "stateMutability": "view",
            "type": "function"
        },
        {
            "constant": true,
            "inputs": [
                {
                    "name": "",
                    "type": "address"
                }
            ],
            "name": "withdrawCount",
            "outputs": [
                {
                    "name": "",
                    "type": "uint256"
                }
            ],
            "payable": false,
            "stateMutability": "view",
            "type": "function"
        },
        {
            "constant": true,
            "inputs": [],
            "name": "maxDeposit",
            "outputs": [
                {
                    "name": "",
                    "type": "uint256"
                }
            ],
            "payable": false,
            "stateMutability": "view",
            "type": "function"
        },
        {
            "constant": true,
            "inputs": [],
            "name": "playerBalance",
            "outputs": [
                {
                    "name": "",
                    "type": "uint256"
                }
            ],
            "payable": false,
            "stateMutability": "view",
            "type": "function"
        },
        {
            "constant": true,
            "inputs": [
                {
                    "name": "",
                    "type": "address"
                }
            ],
            "name": "approveWithdraw",
            "outputs": [
                {
                    "name": "",
                    "type": "uint256"
                }
            ],
            "payable": false,
            "stateMutability": "view",
            "type": "function"
        },
        {
            "constant": false,
            "inputs": [
                {
                    "name": "newCasino",
                    "type": "address"
                },
                {
                    "name": "v",
                    "type": "uint8"
                },
                {
                    "name": "r",
                    "type": "bytes32"
                },
                {
                    "name": "s",
                    "type": "bytes32"
                },
                {
                    "name": "chargeGas",
                    "type": "bool"
                }
            ],
            "name": "transferToNewContract",
            "outputs": [],
            "payable": false,
            "stateMutability": "nonpayable",
            "type": "function"
        },
        {
            "constant": true,
            "inputs": [
                {
                    "name": "",
                    "type": "address"
                }
            ],
            "name": "balanceOf",
            "outputs": [
                {
                    "name": "",
                    "type": "uint256"
                }
            ],
            "payable": false,
            "stateMutability": "view",
            "type": "function"
        },
        {
            "constant": false,
            "inputs": [],
            "name": "cancelWithdraw",
            "outputs": [],
            "payable": false,
            "stateMutability": "nonpayable",
            "type": "function"
        },
        {
            "constant": true,
            "inputs": [],
            "name": "maxWithdrawal",
            "outputs": [
                {
                    "name": "",
                    "type": "uint256"
                }
            ],
            "payable": false,
            "stateMutability": "view",
            "type": "function"
        },
        {
            "constant": true,
            "inputs": [],
            "name": "owner",
            "outputs": [
                {
                    "name": "",
                    "type": "address"
                }
            ],
            "payable": false,
            "stateMutability": "view",
            "type": "function"
        },
        {
            "constant": false,
            "inputs": [
                {
                    "name": "receiver",
                    "type": "address"
                },
                {
                    "name": "amount",
                    "type": "uint256"
                },
                {
                    "name": "v",
                    "type": "uint8"
                },
                {
                    "name": "r",
                    "type": "bytes32"
                },
                {
                    "name": "s",
                    "type": "bytes32"
                }
            ],
            "name": "withdrawFor",
            "outputs": [],
            "payable": false,
            "stateMutability": "nonpayable",
            "type": "function"
        },
        {
            "constant": false,
            "inputs": [
                {
                    "name": "_address",
                    "type": "address"
                },
                {
                    "name": "amount",
                    "type": "uint256"
                }
            ],
            "name": "aproveWithdraw",
            "outputs": [],
            "payable": false,
            "stateMutability": "nonpayable",
            "type": "function"
        },
        {
            "constant": false,
            "inputs": [
                {
                    "name": "newOwner",
                    "type": "address"
                }
            ],
            "name": "changeOwner",
            "outputs": [],
            "payable": false,
            "stateMutability": "nonpayable",
            "type": "function"
        },
        {
            "constant": true,
            "inputs": [],
            "name": "closeAt",
            "outputs": [
                {
                    "name": "",
                    "type": "uint256"
                }
            ],
            "payable": false,
            "stateMutability": "view",
            "type": "function"
        },
        {
            "constant": true,
            "inputs": [],
            "name": "waitingTime",
            "outputs": [
                {
                    "name": "",
                    "type": "uint256"
                }
            ],
            "payable": false,
            "stateMutability": "view",
            "type": "function"
        },
        {
            "constant": true,
            "inputs": [
                {
                    "name": "",
                    "type": "address"
                }
            ],
            "name": "allowedReceiver",
            "outputs": [
                {
                    "name": "",
                    "type": "bool"
                }
            ],
            "payable": false,
            "stateMutability": "view",
            "type": "function"
        },
        {
            "constant": false,
            "inputs": [
                {
                    "name": "addr",
                    "type": "address"
                }
            ],
            "name": "authorize",
            "outputs": [],
            "payable": false,
            "stateMutability": "nonpayable",
            "type": "function"
        },
        {
            "constant": true,
            "inputs": [],
            "name": "predecessor",
            "outputs": [
                {
                    "name": "",
                    "type": "address"
                }
            ],
            "payable": false,
            "stateMutability": "view",
            "type": "function"
        },
        {
            "constant": true,
            "inputs": [
                {
                    "name": "",
                    "type": "address"
                }
            ],
            "name": "authorized",
            "outputs": [
                {
                    "name": "",
                    "type": "bool"
                }
            ],
            "payable": false,
            "stateMutability": "view",
            "type": "function"
        },
        {
            "constant": false,
            "inputs": [
                {
                    "name": "newMax",
                    "type": "uint256"
                }
            ],
            "name": "setMaxDeposit",
            "outputs": [],
            "payable": false,
            "stateMutability": "nonpayable",
            "type": "function"
        },
        {
            "constant": false,
            "inputs": [
                {
                    "name": "receiver",
                    "type": "address"
                }
            ],
            "name": "allowReceiver",
            "outputs": [],
            "payable": false,
            "stateMutability": "nonpayable",
            "type": "function"
        },
        {
            "constant": false,
            "inputs": [
                {
                    "name": "receiver",
                    "type": "address"
                },
                {
                    "name": "numTokens",
                    "type": "uint256"
                }
            ],
            "name": "withdrawBankroll",
            "outputs": [],
            "payable": false,
            "stateMutability": "nonpayable",
            "type": "function"
        },
        {
            "constant": false,
            "inputs": [
                {
                    "name": "newWaitingTime",
                    "type": "uint256"
                }
            ],
            "name": "setWaitingTime",
            "outputs": [],
            "payable": false,
            "stateMutability": "nonpayable",
            "type": "function"
        },
        {
            "constant": false,
            "inputs": [
                {
                    "name": "player",
                    "type": "address"
                },
                {
                    "name": "value",
                    "type": "uint256"
                }
            ],
            "name": "credit",
            "outputs": [
                {
                    "name": "",
                    "type": "bool"
                }
            ],
            "payable": false,
            "stateMutability": "nonpayable",
            "type": "function"
        },
        {
            "constant": true,
            "inputs": [
                {
                    "name": "",
                    "type": "address"
                }
            ],
            "name": "approvedWithdrawAmount",
            "outputs": [
                {
                    "name": "",
                    "type": "uint256"
                }
            ],
            "payable": false,
            "stateMutability": "view",
            "type": "function"
        },
        {
            "constant": false,
            "inputs": [],
            "name": "open",
            "outputs": [],
            "payable": false,
            "stateMutability": "nonpayable",
            "type": "function"
        },
        {
            "inputs": [
                {
                    "name": "predecessorAddress",
                    "type": "address"
                },
                {
                    "name": "tokenContract",
                    "type": "address"
                },
                {
                    "name": "depositLimit",
                    "type": "uint256"
                },
                {
                    "name": "kGasPrice",
                    "type": "uint256"
                }
            ],
            "payable": false,
            "stateMutability": "nonpayable",
            "type": "constructor"
        },
        {
            "anonymous": false,
            "inputs": [
                {
                    "indexed": false,
                    "name": "_player",
                    "type": "address"
                },
                {
                    "indexed": false,
                    "name": "_numTokens",
                    "type": "uint256"
                }
            ],
            "name": "Deposit",
            "type": "event"
        },
        {
            "anonymous": false,
            "inputs": [
                {
                    "indexed": false,
                    "name": "_player",
                    "type": "address"
                },
                {
                    "indexed": false,
                    "name": "_receiver",
                    "type": "address"
                },
                {
                    "indexed": false,
                    "name": "_numTokens",
                    "type": "uint256"
                }
            ],
            "name": "Withdrawal",
            "type": "event"
        },
        {
            "anonymous": false,
            "inputs": [
                {
                    "indexed": false,
                    "name": "player",
                    "type": "address"
                },
                {
                    "indexed": false,
                    "name": "nonce",
                    "type": "uint128"
                },
                {
                    "indexed": false,
                    "name": "newBalance",
                    "type": "int128"
                },
                {
                    "indexed": false,
                    "name": "difference",
                    "type": "int256"
                },
                {
                    "indexed": false,
                    "name": "lastBalance",
                    "type": "int128"
                }
            ],
            "name": "StateUpdate",
            "type": "event"
        },
        {
            "anonymous": false,
            "inputs": [
                {
                    "indexed": false,
                    "name": "player",
                    "type": "address"
                },
                {
                    "indexed": false,
                    "name": "serverSeeds",
                    "type": "bytes32[]"
                },
                {
                    "indexed": false,
                    "name": "clientSeeds",
                    "type": "bytes32[]"
                },
                {
                    "indexed": false,
                    "name": "results",
                    "type": "int256[]"
                },
                {
                    "indexed": false,
                    "name": "gasCost",
                    "type": "uint256"
                }
            ],
            "name": "GameData",
            "type": "event"
        },
        {
            "constant": false,
            "inputs": [
                {
                    "name": "newBalance",
                    "type": "int128"
                },
                {
                    "name": "nonce",
                    "type": "uint128"
                },
                {
                    "name": "category",
                    "type": "uint8"
                },
                {
                    "name": "v",
                    "type": "uint8"
                },
                {
                    "name": "r",
                    "type": "bytes32"
                },
                {
                    "name": "s",
                    "type": "bytes32"
                }
            ],
            "name": "updateState",
            "outputs": [],
            "payable": false,
            "stateMutability": "nonpayable",
            "type": "function"
        },
        {
            "constant": true,
            "inputs": [
                {
                    "name": "newBalance",
                    "type": "int128"
                },
                {
                    "name": "nonce",
                    "type": "uint128"
                },
                {
                    "name": "category",
                    "type": "uint8"
                },
                {
                    "name": "v",
                    "type": "uint8"
                },
                {
                    "name": "r",
                    "type": "bytes32"
                },
                {
                    "name": "s",
                    "type": "bytes32"
                }
            ],
            "name": "determinePlayer",
            "outputs": [
                {
                    "name": "",
                    "type": "address"
                }
            ],
            "payable": false,
            "stateMutability": "view",
            "type": "function"
        },
        {
            "constant": false,
            "inputs": [
                {
                    "name": "updateAmount",
                    "type": "uint256"
                }
            ],
            "name": "updatePlayerBalance",
            "outputs": [
                {
                    "name": "",
                    "type": "uint256"
                }
            ],
            "payable": false,
            "stateMutability": "nonpayable",
            "type": "function"
        }
    ],
    "bytecode": "0x608060405234801561001057600080fd5b5060405160808061367583398101806040528101908080519060200190929190805190602001909291908051906020019092919080519060200190929190505050818484336000806101000a81548173ffffffffffffffffffffffffffffffffffffffff021916908373ffffffffffffffffffffffffffffffffffffffff16021790555080600260006101000a81548173ffffffffffffffffffffffffffffffffffffffff021916908373ffffffffffffffffffffffffffffffffffffffff160217905550506001600360003373ffffffffffffffffffffffffffffffffffffffff1673ffffffffffffffffffffffffffffffffffffffff16815260200190815260200160002060006101000a81548160ff0219169083151502179055506001600460003373ffffffffffffffffffffffffffffffffffffffff1673ffffffffffffffffffffffffffffffffffffffff16815260200190815260200160002060006101000a81548160ff02191690831515021790555081600b81905550600b54600c81905550603c600d8190555080600e60006101000a81548173ffffffffffffffffffffffffffffffffffffffff021916908373ffffffffffffffffffffffffffffffffffffffff160217905550505050505050613481806101f46000396000f3006080604052600436106101cd576000357c0100000000000000000000000000000000000000000000000000000000900463ffffffff1680630c657eb0146101d25780631ae32b82146101fd578063203faa891461024057806327c97fa5146102d55780632d2b96e8146103185780632e1a7d4d146103815780633926384d146103ae57806343d726d6146103db5780634659f42a146103f25780634f23618f146104495780636083e59a146104a0578063651f066a146104cb5780636579e35c146104f65780636bf06fde1461054d57806370a08231146105c557806371bf00831461061c57806384b76824146106de5780638c0ff5b7146106f55780638da5cb5b146107205780639607610a14610777578063a5d6ab00146107ed578063a6f9dae11461083a578063a98540871461087d578063aa13e8c2146108a8578063b2f5e6c2146108d3578063b39cf93f1461092e578063b6a5d7de1461096f578063b719d032146109b2578063b918161114610a09578063bb371fdd14610a64578063bb75023214610a91578063d3bd5e1914610ad4578063e9e3074614610b56578063ebc73e6514610ba3578063ef6506db14610bd0578063f242713d14610c35578063fcfff16f14610c8c575b600080fd5b3480156101de57600080fd5b506101e7610ca3565b6040518082815260200191505060405180910390f35b34801561020957600080fd5b5061023e600480360381019080803573ffffffffffffffffffffffffffffffffffffffff169060200190929190505050610dad565b005b34801561024c57600080fd5b50610281600480360381019080803573ffffffffffffffffffffffffffffffffffffffff169060200190929190505050610e63565b60405180846fffffffffffffffffffffffffffffffff166fffffffffffffffffffffffffffffffff16815260200183600f0b600f0b81526020018260ff1660ff168152602001935050505060405180910390f35b3480156102e157600080fd5b50610316600480360381019080803573ffffffffffffffffffffffffffffffffffffffff169060200190929190505050610ec3565b005b34801561032457600080fd5b5061037f600480360381019080803573ffffffffffffffffffffffffffffffffffffffff1690602001909291908035906020019092919080356fffffffffffffffffffffffffffffffff169060200190929190505050610f79565b005b34801561038d57600080fd5b506103ac60048036038101908080359060200190929190505050611306565b005b3480156103ba57600080fd5b506103d9600480360381019080803590602001909291905050506115fd565b005b3480156103e757600080fd5b506103f061165f565b005b3480156103fe57600080fd5b50610433600480360381019080803573ffffffffffffffffffffffffffffffffffffffff1690602001909291905050506116c7565b6040518082815260200191505060405180910390f35b34801561045557600080fd5b5061048a600480360381019080803573ffffffffffffffffffffffffffffffffffffffff1690602001909291905050506116df565b6040518082815260200191505060405180910390f35b3480156104ac57600080fd5b506104b56116f7565b6040518082815260200191505060405180910390f35b3480156104d757600080fd5b506104e06116fd565b6040518082815260200191505060405180910390f35b34801561050257600080fd5b50610537600480360381019080803573ffffffffffffffffffffffffffffffffffffffff169060200190929190505050611703565b6040518082815260200191505060405180910390f35b34801561055957600080fd5b506105c3600480360381019080803573ffffffffffffffffffffffffffffffffffffffff169060200190929190803560ff1690602001909291908035600019169060200190929190803560001916906020019092919080351515906020019092919050505061171b565b005b3480156105d157600080fd5b50610606600480360381019080803573ffffffffffffffffffffffffffffffffffffffff169060200190929190505050611bc7565b6040518082815260200191505060405180910390f35b34801561062857600080fd5b5061069c6004803603810190808035600f0b906020019092919080356fffffffffffffffffffffffffffffffff169060200190929190803560ff169060200190929190803560ff16906020019092919080356000191690602001909291908035600019169060200190929190505050611bdf565b604051808273ffffffffffffffffffffffffffffffffffffffff1673ffffffffffffffffffffffffffffffffffffffff16815260200191505060405180910390f35b3480156106ea57600080fd5b506106f3611d6e565b005b34801561070157600080fd5b5061070a611db5565b6040518082815260200191505060405180910390f35b34801561072c57600080fd5b50610735611dbb565b604051808273ffffffffffffffffffffffffffffffffffffffff1673ffffffffffffffffffffffffffffffffffffffff16815260200191505060405180910390f35b34801561078357600080fd5b506107eb600480360381019080803573ffffffffffffffffffffffffffffffffffffffff16906020019092919080359060200190929190803560ff16906020019092919080356000191690602001909291908035600019169060200190929190505050611de0565b005b3480156107f957600080fd5b50610838600480360381019080803573ffffffffffffffffffffffffffffffffffffffff16906020019092919080359060200190929190505050612203565b005b34801561084657600080fd5b5061087b600480360381019080803573ffffffffffffffffffffffffffffffffffffffff1690602001909291905050506122a3565b005b34801561088957600080fd5b506108926123a7565b6040518082815260200191505060405180910390f35b3480156108b457600080fd5b506108bd6123ad565b6040518082815260200191505060405180910390f35b3480156108df57600080fd5b50610914600480360381019080803573ffffffffffffffffffffffffffffffffffffffff1690602001909291905050506123b3565b604051808215151515815260200191505060405180910390f35b34801561093a57600080fd5b50610959600480360381019080803590602001909291905050506123d3565b6040518082815260200191505060405180910390f35b34801561097b57600080fd5b506109b0600480360381019080803573ffffffffffffffffffffffffffffffffffffffff169060200190929190505050612456565b005b3480156109be57600080fd5b506109c761250c565b604051808273ffffffffffffffffffffffffffffffffffffffff1673ffffffffffffffffffffffffffffffffffffffff16815260200191505060405180910390f35b348015610a1557600080fd5b50610a4a600480360381019080803573ffffffffffffffffffffffffffffffffffffffff169060200190929190505050612532565b604051808215151515815260200191505060405180910390f35b348015610a7057600080fd5b50610a8f60048036038101908080359060200190929190505050612552565b005b348015610a9d57600080fd5b50610ad2600480360381019080803573ffffffffffffffffffffffffffffffffffffffff1690602001909291905050506125b4565b005b348015610ae057600080fd5b50610b546004803603810190808035600f0b906020019092919080356fffffffffffffffffffffffffffffffff169060200190929190803560ff169060200190929190803560ff1690602001909291908035600019169060200190929190803560001916906020019092919050505061266a565b005b348015610b6257600080fd5b50610ba1600480360381019080803573ffffffffffffffffffffffffffffffffffffffff169060200190929190803590602001909291905050506128b5565b005b348015610baf57600080fd5b50610bce60048036038101908080359060200190929190505050612b1a565b005b348015610bdc57600080fd5b50610c1b600480360381019080803573ffffffffffffffffffffffffffffffffffffffff16906020019092919080359060200190929190505050612b8e565b604051808215151515815260200191505060405180910390f35b348015610c4157600080fd5b50610c76600480360381019080803573ffffffffffffffffffffffffffffffffffffffff169060200190929190505050612cf2565b6040518082815260200191505060405180910390f35b348015610c9857600080fd5b50610ca1612d0a565b005b6000610da8600260009054906101000a900473ffffffffffffffffffffffffffffffffffffffff1673ffffffffffffffffffffffffffffffffffffffff166370a08231306040518263ffffffff167c0100000000000000000000000000000000000000000000000000000000028152600401808273ffffffffffffffffffffffffffffffffffffffff1673ffffffffffffffffffffffffffffffffffffffff168152602001915050602060405180830381600087803b158015610d6557600080fd5b505af1158015610d79573d6000803e3d6000fd5b505050506040513d6020811015610d8f57600080fd5b8101908080519060200190929190505050600554612d6f565b905090565b6000809054906101000a900473ffffffffffffffffffffffffffffffffffffffff1673ffffffffffffffffffffffffffffffffffffffff163373ffffffffffffffffffffffffffffffffffffffff16141515610e0857600080fd5b6000600460008373ffffffffffffffffffffffffffffffffffffffff1673ffffffffffffffffffffffffffffffffffffffff16815260200190815260200160002060006101000a81548160ff02191690831515021790555050565b600f6020528060005260406000206000915090508060000160009054906101000a90046fffffffffffffffffffffffffffffffff16908060000160109054906101000a9004600f0b908060010160009054906101000a900460ff16905083565b6000809054906101000a900473ffffffffffffffffffffffffffffffffffffffff1673ffffffffffffffffffffffffffffffffffffffff163373ffffffffffffffffffffffffffffffffffffffff16141515610f1e57600080fd5b6000600360008373ffffffffffffffffffffffffffffffffffffffff1673ffffffffffffffffffffffffffffffffffffffff16815260200190815260200160002060006101000a81548160ff02191690831515021790555050565b6000806000600154141515610f8d57600080fd5b600084111515610f9c57600080fd5b839150610fe8600660008773ffffffffffffffffffffffffffffffffffffffff1673ffffffffffffffffffffffffffffffffffffffff1681526020019081526020016000205483612d88565b9050600b548111151515610ffb57600080fd5b600260009054906101000a900473ffffffffffffffffffffffffffffffffffffffff1673ffffffffffffffffffffffffffffffffffffffff166323b872dd3330876040518463ffffffff167c0100000000000000000000000000000000000000000000000000000000028152600401808473ffffffffffffffffffffffffffffffffffffffff1673ffffffffffffffffffffffffffffffffffffffff1681526020018373ffffffffffffffffffffffffffffffffffffffff1673ffffffffffffffffffffffffffffffffffffffff1681526020018281526020019350505050602060405180830381600087803b1580156110f457600080fd5b505af1158015611108573d6000803e3d6000fd5b505050506040513d602081101561111e57600080fd5b8101908080519060200190929190505050151561113757fe5b80600660008773ffffffffffffffffffffffffffffffffffffffff1673ffffffffffffffffffffffffffffffffffffffff16815260200190815260200160002081905550606060405190810160405280846fffffffffffffffffffffffffffffffff16815260200182600f0b8152602001600260ff16815250600f60008773ffffffffffffffffffffffffffffffffffffffff1673ffffffffffffffffffffffffffffffffffffffff16815260200190815260200160002060008201518160000160006101000a8154816fffffffffffffffffffffffffffffffff02191690836fffffffffffffffffffffffffffffffff16021790555060208201518160000160106101000a8154816fffffffffffffffffffffffffffffffff0219169083600f0b6fffffffffffffffffffffffffffffffff16021790555060408201518160010160006101000a81548160ff021916908360ff1602179055509050507fe1fffcc4923d04b559f4d29a8bfc6cda04eb5b0d3c460751c2402c5c5cc9109c8585604051808373ffffffffffffffffffffffffffffffffffffffff1673ffffffffffffffffffffffffffffffffffffffff1681526020018281526020019250505060405180910390a15050505050565b600080600154111561131f5762278d0042016001819055505b81600860003373ffffffffffffffffffffffffffffffffffffffff1673ffffffffffffffffffffffffffffffffffffffff168152602001908152602001600020541015151561136d57600080fd5b600c54821115151561137e57600080fd5b6000600860003373ffffffffffffffffffffffffffffffffffffffff1673ffffffffffffffffffffffffffffffffffffffff1681526020019081526020016000208190555081905061140f600660003373ffffffffffffffffffffffffffffffffffffffff1673ffffffffffffffffffffffffffffffffffffffff1681526020019081526020016000205482612d6f565b600660003373ffffffffffffffffffffffffffffffffffffffff1673ffffffffffffffffffffffffffffffffffffffff16815260200190815260200160002081905550600260009054906101000a900473ffffffffffffffffffffffffffffffffffffffff1673ffffffffffffffffffffffffffffffffffffffff1663a9059cbb33846040518363ffffffff167c0100000000000000000000000000000000000000000000000000000000028152600401808373ffffffffffffffffffffffffffffffffffffffff1673ffffffffffffffffffffffffffffffffffffffff16815260200182815260200192505050602060405180830381600087803b15801561151757600080fd5b505af115801561152b573d6000803e3d6000fd5b505050506040513d602081101561154157600080fd5b8101908080519060200190929190505050151561155a57fe5b7f2717ead6b9200dd235aad468c9809ea400fe33ac69b5bfaa6d3e90fc922b6398333384604051808473ffffffffffffffffffffffffffffffffffffffff1673ffffffffffffffffffffffffffffffffffffffff1681526020018373ffffffffffffffffffffffffffffffffffffffff1673ffffffffffffffffffffffffffffffffffffffff168152602001828152602001935050505060405180910390a15050565b600360003373ffffffffffffffffffffffffffffffffffffffff1673ffffffffffffffffffffffffffffffffffffffff16815260200190815260200160002060009054906101000a900460ff16151561165557600080fd5b80600c8190555050565b6000809054906101000a900473ffffffffffffffffffffffffffffffffffffffff1673ffffffffffffffffffffffffffffffffffffffff163373ffffffffffffffffffffffffffffffffffffffff161415156116ba57600080fd5b6116c5600554612db2565b565b60076020528060005260406000206000915090505481565b60096020528060005260406000206000915090505481565b600b5481565b60055481565b60086020528060005260406000206000915090505481565b6000806000600360003373ffffffffffffffffffffffffffffffffffffffff1673ffffffffffffffffffffffffffffffffffffffff16815260200190815260200160002060009054906101000a900460ff16151561177857600080fd5b600060015411156117905762278d0042016001819055505b60013089604051808373ffffffffffffffffffffffffffffffffffffffff1673ffffffffffffffffffffffffffffffffffffffff166c010000000000000000000000000281526014018273ffffffffffffffffffffffffffffffffffffffff1673ffffffffffffffffffffffffffffffffffffffff166c01000000000000000000000000028152601401925050506040518091039020888888604051600081526020016040526040518085600019166000191681526020018460ff1660ff1681526020018360001916600019168152602001826000191660001916815260200194505050505060206040516020810390808403906000865af115801561189a573d6000803e3d6000fd5b505050602060405103519250600660008473ffffffffffffffffffffffffffffffffffffffff1673ffffffffffffffffffffffffffffffffffffffff1681526020019081526020016000205491506000600660008573ffffffffffffffffffffffffffffffffffffffff1673ffffffffffffffffffffffffffffffffffffffff16815260200190815260200160002081905550600260009054906101000a900473ffffffffffffffffffffffffffffffffffffffff1673ffffffffffffffffffffffffffffffffffffffff1663a9059cbb89846040518363ffffffff167c0100000000000000000000000000000000000000000000000000000000028152600401808373ffffffffffffffffffffffffffffffffffffffff1673ffffffffffffffffffffffffffffffffffffffff16815260200182815260200192505050602060405180830381600087803b1580156119f257600080fd5b505af1158015611a06573d6000803e3d6000fd5b505050506040513d6020811015611a1c57600080fd5b81019080805190602001909291905050501515611a3557fe5b7f2717ead6b9200dd235aad468c9809ea400fe33ac69b5bfaa6d3e90fc922b6398838984604051808473ffffffffffffffffffffffffffffffffffffffff1673ffffffffffffffffffffffffffffffffffffffff1681526020018373ffffffffffffffffffffffffffffffffffffffff1673ffffffffffffffffffffffffffffffffffffffff168152602001828152602001935050505060405180910390a18790508073ffffffffffffffffffffffffffffffffffffffff1663ef6506db84846040518363ffffffff167c0100000000000000000000000000000000000000000000000000000000028152600401808373ffffffffffffffffffffffffffffffffffffffff1673ffffffffffffffffffffffffffffffffffffffff16815260200182815260200192505050602060405180830381600087803b158015611b7a57600080fd5b505af1158015611b8e573d6000803e3d6000fd5b505050506040513d6020811015611ba457600080fd5b81019080805190602001909291905050501515611bbd57fe5b5050505050505050565b60066020528060005260406000206000915090505481565b6000600360003373ffffffffffffffffffffffffffffffffffffffff1673ffffffffffffffffffffffffffffffffffffffff16815260200190815260200160002060009054906101000a900460ff1615611d60576001611cdb8888886040518084600f0b600f0b700100000000000000000000000000000000028152601001836fffffffffffffffffffffffffffffffff166fffffffffffffffffffffffffffffffff167001000000000000000000000000000000000281526010018260ff1660ff167f010000000000000000000000000000000000000000000000000000000000000002815260010193505050506040518091039020613035565b858585604051600081526020016040526040518085600019166000191681526020018460ff1660ff1681526020018360001916600019168152602001826000191660001916815260200194505050505060206040516020810390808403906000865af1158015611d4f573d6000803e3d6000fd5b505050602060405103519050611d64565b3390505b9695505050505050565b6000600860003373ffffffffffffffffffffffffffffffffffffffff1673ffffffffffffffffffffffffffffffffffffffff16815260200190815260200160002081905550565b600c5481565b6000809054906101000a900473ffffffffffffffffffffffffffffffffffffffff1681565b600080600360003373ffffffffffffffffffffffffffffffffffffffff1673ffffffffffffffffffffffffffffffffffffffff16815260200190815260200160002060009054906101000a900460ff161515611e3b57600080fd5b60006001541115611e535762278d0042016001819055505b60018787600960008b73ffffffffffffffffffffffffffffffffffffffff1673ffffffffffffffffffffffffffffffffffffffff16815260200190815260200160002054604051808473ffffffffffffffffffffffffffffffffffffffff1673ffffffffffffffffffffffffffffffffffffffff166c0100000000000000000000000002815260140183815260200182815260200193505050506040518091039020868686604051600081526020016040526040518085600019166000191681526020018460ff1660ff1681526020018360001916600019168152602001826000191660001916815260200194505050505060206040516020810390808403906000865af1158015611f69573d6000803e3d6000fd5b505050602060405103519150600960008873ffffffffffffffffffffffffffffffffffffffff1673ffffffffffffffffffffffffffffffffffffffff16815260200190815260200160002060008154809291906001019190505550859050612010600660008473ffffffffffffffffffffffffffffffffffffffff1673ffffffffffffffffffffffffffffffffffffffff1681526020019081526020016000205482612d6f565b600660008473ffffffffffffffffffffffffffffffffffffffff1673ffffffffffffffffffffffffffffffffffffffff16815260200190815260200160002081905550600260009054906101000a900473ffffffffffffffffffffffffffffffffffffffff1673ffffffffffffffffffffffffffffffffffffffff1663a9059cbb88886040518363ffffffff167c0100000000000000000000000000000000000000000000000000000000028152600401808373ffffffffffffffffffffffffffffffffffffffff1673ffffffffffffffffffffffffffffffffffffffff16815260200182815260200192505050602060405180830381600087803b15801561211857600080fd5b505af115801561212c573d6000803e3d6000fd5b505050506040513d602081101561214257600080fd5b8101908080519060200190929190505050151561215b57fe5b7f2717ead6b9200dd235aad468c9809ea400fe33ac69b5bfaa6d3e90fc922b6398828888604051808473ffffffffffffffffffffffffffffffffffffffff1673ffffffffffffffffffffffffffffffffffffffff1681526020018373ffffffffffffffffffffffffffffffffffffffff1673ffffffffffffffffffffffffffffffffffffffff168152602001828152602001935050505060405180910390a150505050505050565b600360003373ffffffffffffffffffffffffffffffffffffffff1673ffffffffffffffffffffffffffffffffffffffff16815260200190815260200160002060009054906101000a900460ff16151561225b57600080fd5b80600860008473ffffffffffffffffffffffffffffffffffffffff1673ffffffffffffffffffffffffffffffffffffffff168152602001908152602001600020819055505050565b6000809054906101000a900473ffffffffffffffffffffffffffffffffffffffff1673ffffffffffffffffffffffffffffffffffffffff163373ffffffffffffffffffffffffffffffffffffffff161415156122fe57600080fd5b6123286000809054906101000a900473ffffffffffffffffffffffffffffffffffffffff16610ec3565b61233181612456565b61235b6000809054906101000a900473ffffffffffffffffffffffffffffffffffffffff16610dad565b612364816125b4565b806000806101000a81548173ffffffffffffffffffffffffffffffffffffffff021916908373ffffffffffffffffffffffffffffffffffffffff16021790555050565b60015481565b600d5481565b60046020528060005260406000206000915054906101000a900460ff1681565b6000600360003373ffffffffffffffffffffffffffffffffffffffff1673ffffffffffffffffffffffffffffffffffffffff16815260200190815260200160002060009054906101000a900460ff16151561242d57600080fd5b600060015411156124455762278d0042016001819055505b816005819055506005549050919050565b6000809054906101000a900473ffffffffffffffffffffffffffffffffffffffff1673ffffffffffffffffffffffffffffffffffffffff163373ffffffffffffffffffffffffffffffffffffffff161415156124b157600080fd5b6001600360008373ffffffffffffffffffffffffffffffffffffffff1673ffffffffffffffffffffffffffffffffffffffff16815260200190815260200160002060006101000a81548160ff02191690831515021790555050565b600e60009054906101000a900473ffffffffffffffffffffffffffffffffffffffff1681565b60036020528060005260406000206000915054906101000a900460ff1681565b600360003373ffffffffffffffffffffffffffffffffffffffff1673ffffffffffffffffffffffffffffffffffffffff16815260200190815260200160002060009054906101000a900460ff1615156125aa57600080fd5b80600b8190555050565b6000809054906101000a900473ffffffffffffffffffffffffffffffffffffffff1673ffffffffffffffffffffffffffffffffffffffff163373ffffffffffffffffffffffffffffffffffffffff1614151561260f57600080fd5b6001600460008373ffffffffffffffffffffffffffffffffffffffff1673ffffffffffffffffffffffffffffffffffffffff16815260200190815260200160002060006101000a81548160ff02191690831515021790555050565b6000600360003373ffffffffffffffffffffffffffffffffffffffff1673ffffffffffffffffffffffffffffffffffffffff16815260200190815260200160002060009054906101000a900460ff1615156126c457600080fd5b6126d2878787878787611bdf565b90503373ffffffffffffffffffffffffffffffffffffffff168173ffffffffffffffffffffffffffffffffffffffff1614156128a057600360006001838989604051808473ffffffffffffffffffffffffffffffffffffffff1673ffffffffffffffffffffffffffffffffffffffff166c01000000000000000000000000028152601401836fffffffffffffffffffffffffffffffff166fffffffffffffffffffffffffffffffff167001000000000000000000000000000000000281526010018260ff1660ff167f010000000000000000000000000000000000000000000000000000000000000002815260010193505050506040518091039020878787604051600081526020016040526040518085600019166000191681526020018460ff1660ff1681526020018360001916600019168152602001826000191660001916815260200194505050505060206040516020810390808403906000865af1158015612842573d6000803e3d6000fd5b5050506020604051035173ffffffffffffffffffffffffffffffffffffffff1673ffffffffffffffffffffffffffffffffffffffff16815260200190815260200160002060009054906101000a900460ff16151561289f57600080fd5b5b6128ac818887896130f0565b50505050505050565b600360003373ffffffffffffffffffffffffffffffffffffffff1673ffffffffffffffffffffffffffffffffffffffff16815260200190815260200160002060009054906101000a900460ff16151561290d57600080fd5b612915610ca3565b811115151561292357600080fd5b600460008373ffffffffffffffffffffffffffffffffffffffff1673ffffffffffffffffffffffffffffffffffffffff16815260200190815260200160002060009054906101000a900460ff16151561297b57600080fd5b80600860008473ffffffffffffffffffffffffffffffffffffffff1673ffffffffffffffffffffffffffffffffffffffff16815260200190815260200160002054101515156129c957600080fd5b6000600860003373ffffffffffffffffffffffffffffffffffffffff1673ffffffffffffffffffffffffffffffffffffffff16815260200190815260200160002081905550600260009054906101000a900473ffffffffffffffffffffffffffffffffffffffff1673ffffffffffffffffffffffffffffffffffffffff1663a9059cbb83836040518363ffffffff167c0100000000000000000000000000000000000000000000000000000000028152600401808373ffffffffffffffffffffffffffffffffffffffff1673ffffffffffffffffffffffffffffffffffffffff16815260200182815260200192505050602060405180830381600087803b158015612ad357600080fd5b505af1158015612ae7573d6000803e3d6000fd5b505050506040513d6020811015612afd57600080fd5b81019080805190602001909291905050501515612b1657fe5b5050565b600360003373ffffffffffffffffffffffffffffffffffffffff1673ffffffffffffffffffffffffffffffffffffffff16815260200190815260200160002060009054906101000a900460ff161515612b7257600080fd5b620151808111151515612b8457600080fd5b80600d8190555050565b600080600e60009054906101000a900473ffffffffffffffffffffffffffffffffffffffff1673ffffffffffffffffffffffffffffffffffffffff163373ffffffffffffffffffffffffffffffffffffffff16141515612bed57600080fd5b829050612c39600660008673ffffffffffffffffffffffffffffffffffffffff1673ffffffffffffffffffffffffffffffffffffffff1681526020019081526020016000205482612d88565b600660008673ffffffffffffffffffffffffffffffffffffffff1673ffffffffffffffffffffffffffffffffffffffff168152602001908152602001600020819055507fe1fffcc4923d04b559f4d29a8bfc6cda04eb5b0d3c460751c2402c5c5cc9109c8484604051808373ffffffffffffffffffffffffffffffffffffffff1673ffffffffffffffffffffffffffffffffffffffff1681526020018281526020019250505060405180910390a1600191505092915050565b600a6020528060005260406000206000915090505481565b6000809054906101000a900473ffffffffffffffffffffffffffffffffffffffff1673ffffffffffffffffffffffffffffffffffffffff163373ffffffffffffffffffffffffffffffffffffffff16141515612d6557600080fd5b6000600181905550565b6000828211151515612d7d57fe5b818303905092915050565b6000808284019050838110158015612da05750828110155b1515612da857fe5b8091505092915050565b60006001541415612dca5762278d0042016001819055505b426001541080612dda5750600081145b1561303257600260009054906101000a900473ffffffffffffffffffffffffffffffffffffffff1673ffffffffffffffffffffffffffffffffffffffff1663a9059cbb6000809054906101000a900473ffffffffffffffffffffffffffffffffffffffff16600260009054906101000a900473ffffffffffffffffffffffffffffffffffffffff1673ffffffffffffffffffffffffffffffffffffffff166370a08231306040518263ffffffff167c0100000000000000000000000000000000000000000000000000000000028152600401808273ffffffffffffffffffffffffffffffffffffffff1673ffffffffffffffffffffffffffffffffffffffff168152602001915050602060405180830381600087803b158015612efc57600080fd5b505af1158015612f10573d6000803e3d6000fd5b505050506040513d6020811015612f2657600080fd5b81019080805190602001909291905050506040518363ffffffff167c0100000000000000000000000000000000000000000000000000000000028152600401808373ffffffffffffffffffffffffffffffffffffffff1673ffffffffffffffffffffffffffffffffffffffff16815260200182815260200192505050602060405180830381600087803b158015612fbc57600080fd5b505af1158015612fd0573d6000803e3d6000fd5b505050506040513d6020811015612fe657600080fd5b8101908080519060200190929190505050506000809054906101000a900473ffffffffffffffffffffffffffffffffffffffff1673ffffffffffffffffffffffffffffffffffffffff16ff5b50565b60008160405160200180807f19457468657265756d205369676e6564204d6573736167653a0a333200000000815250601c0182600019166000191681526020019150506040516020818303038152906040526040518082805190602001908083835b6020831015156130bc5780518252602082019150602081019050602083039250613097565b6001836020036101000a03801982511681845116808217855250505050505090500191505060405180910390209050919050565b6000806000600f60008873ffffffffffffffffffffffffffffffffffffffff1673ffffffffffffffffffffffffffffffffffffffff16815260200190815260200160002092508260000160109054906101000a9004600f0b915061315587878461333d565b9050600086600f0b13151561316957600080fd5b606060405190810160405280856fffffffffffffffffffffffffffffffff16815260200187600f0b81526020018660ff16815250600f60008973ffffffffffffffffffffffffffffffffffffffff1673ffffffffffffffffffffffffffffffffffffffff16815260200190815260200160002060008201518160000160006101000a8154816fffffffffffffffffffffffffffffffff02191690836fffffffffffffffffffffffffffffffff16021790555060208201518160000160106101000a8154816fffffffffffffffffffffffffffffffff0219169083600f0b6fffffffffffffffffffffffffffffffff16021790555060408201518160010160006101000a81548160ff021916908360ff1602179055509050507fa8d8690af30bae4770536176faf1f7306a4ce177a31038f8d46c6ce3a9033dcc8785888486604051808673ffffffffffffffffffffffffffffffffffffffff1673ffffffffffffffffffffffffffffffffffffffff168152602001856fffffffffffffffffffffffffffffffff166fffffffffffffffffffffffffffffffff16815260200184600f0b600f0b815260200183815260200182600f0b600f0b81526020019550505050505060405180910390a150505050505050565b60008061335084600f0b84600f0b61341f565b915060008212156133cc577fffffffffffffffffffffffffffffffffffffffffffffffffffffffffffffffff8202905083600f0b600660008773ffffffffffffffffffffffffffffffffffffffff1673ffffffffffffffffffffffffffffffffffffffff16815260200190815260200160002081905550613417565b81905083600f0b600660008773ffffffffffffffffffffffffffffffffffffffff1673ffffffffffffffffffffffffffffffffffffffff168152602001908152602001600020819055505b509392505050565b60008082121561343b578282840313151561343657fe5b61344a565b828284031315151561344957fe5b5b8183039050929150505600a165627a7a72305820c81f39dfeb98e12a0aaf3a78a6f06b88a32a70cdcec91e96326535e4e097e2730029",
    "source": "/**\n * The edgeless casino contract v2 holds the players's funds and provides state channel functionality.\n * The casino has at no time control over the players's funds.\n * State channels can be updated and closed from both parties: the player and the casino.\n * author: Julia Altenried\n **/\n\npragma solidity >=0.4.24 <0.6.0;\n\ncontract SafeMath {\n\n\tfunction safeSub(uint a, uint b) pure internal returns(uint) {\n\t\tassert(b <= a);\n\t\treturn a - b;\n\t}\n\t\n\tfunction safeSub(int a, int b) pure internal returns(int) {\n\t\tif(b < 0) assert(a - b > a);\n\t\telse assert(a - b <= a);\n\t\treturn a - b;\n\t}\n\n\tfunction safeAdd(uint a, uint b) pure internal returns(uint) {\n\t\tuint c = a + b;\n\t\tassert(c >= a && c >= b);\n\t\treturn c;\n\t}\n\n\tfunction safeMul(uint a, uint b) pure internal returns (uint) {\n\t\tuint c = a * b;\n\t\tassert(a == 0 || c / a == b);\n\t\treturn c;\n\t}\n}\n\n\ncontract Token {\n\tfunction transferFrom(address sender, address receiver, uint amount) public returns(bool success);\n\n\tfunction transfer(address receiver, uint amount) public returns(bool success);\n\n\tfunction balanceOf(address holder) public view returns(uint);\n}\n\ncontract Owned {\n  address public owner;\n  modifier onlyOwner {\n    require(msg.sender == owner);\n    _;\n  }\n\n  function Owned() public{\n    owner = msg.sender;\n  }\n\n}\n\n/** owner should be able to close the contract is nobody has been using it for at least 30 days */\ncontract Mortal is Owned {\n\t/** contract can be closed by the owner anytime after this timestamp if non-zero */\n\tuint public closeAt;\n\t/** the edgeless token contract */\n\tToken edg;\n\t\n\tfunction Mortal(address tokenContract) internal{\n\t\tedg = Token(tokenContract);\n\t}\n\t/**\n\t* lets the owner close the contract if there are no player funds on it or if nobody has been using it for at least 30 days\n\t*/\n  function closeContract(uint playerBalance) internal{\n\t\tif(closeAt == 0) closeAt = now + 30 days;\n\t\tif(closeAt < now || playerBalance == 0){\n\t\t\tedg.transfer(owner, edg.balanceOf(address(this)));\n\t\t\tselfdestruct(owner);\n\t\t} \n  }\n\n\t/**\n\t* in case close has been called accidentally.\n\t**/\n\tfunction open() onlyOwner public{\n\t\tcloseAt = 0;\n\t}\n\n\t/**\n\t* make sure the contract is not in process of being closed.\n\t**/\n\tmodifier isAlive {\n\t\trequire(closeAt == 0);\n\t\t_;\n\t}\n\n\t/**\n\t* delays the time of closing.\n\t**/\n\tmodifier keepAlive {\n\t\tif(closeAt > 0) closeAt = now + 30 days;\n\t\t_;\n\t}\n}\n\ncontract RequiringAuthorization is Mortal {\n\t/** indicates if an address is authorized to act in the casino's name  */\n\tmapping(address => bool) public authorized;\n\t/** tells if an address is allowed to receive funds from the bankroll **/\n\tmapping(address => bool) public allowedReceiver;\n\n\tmodifier onlyAuthorized {\n\t\trequire(authorized[msg.sender]);\n\t\t_;\n\t}\n\n\t/**\n\t * Constructor. Authorize the owner.\n\t * */\n\tfunction RequiringAuthorization() internal {\n\t\tauthorized[msg.sender] = true;\n\t\tallowedReceiver[msg.sender] = true;\n\t}\n\n\t/**\n\t * authorize a address to call game functions and set configs.\n\t * @param addr the address to be authorized\n\t **/\n\tfunction authorize(address addr) public onlyOwner {\n\t\tauthorized[addr] = true;\n\t}\n\n\t/**\n\t * deauthorize a address to call game functions and set configs.\n\t * @param addr the address to be deauthorized\n\t **/\n\tfunction deauthorize(address addr) public onlyOwner {\n\t\tauthorized[addr] = false;\n\t}\n\n\t/**\n\t * allow authorized wallets to withdraw funds from the bonkroll to this address\n\t * @param receiver the receiver's address\n\t * */\n\tfunction allowReceiver(address receiver) public onlyOwner {\n\t\tallowedReceiver[receiver] = true;\n\t}\n\n\t/**\n\t * disallow authorized wallets to withdraw funds from the bonkroll to this address\n\t * @param receiver the receiver's address\n\t * */\n\tfunction disallowReceiver(address receiver) public onlyOwner {\n\t\tallowedReceiver[receiver] = false;\n\t}\n\n\t/**\n\t * changes the owner of the contract. revokes authorization of the old owner and authorizes the new one.\n\t * @param newOwner the address of the new owner\n\t * */\n\tfunction changeOwner(address newOwner) public onlyOwner {\n\t\tdeauthorize(owner);\n\t\tauthorize(newOwner);\n\t\tdisallowReceiver(owner);\n\t\tallowReceiver(newOwner);\n\t\towner = newOwner;\n\t}\n}\n\ncontract CasinoBank is RequiringAuthorization, SafeMath {\n\t/** the total balance of all players with virtual decimals **/\n\tuint public playerBalance;\n\t/** the balance per player in edgeless tokens with virtual decimals */\n\tmapping(address => uint) public balanceOf;\n\t/** in case the user wants/needs to call the withdraw function from his own wallet, he first needs to request a withdrawal */\n\tmapping(address => uint) public withdrawAfter;\n\t/** a number to count withdrawal signatures to ensure each signature is different even if withdrawing the same amount to the same address */\n\tmapping(address => uint) public approveWithdraw;\n\t/** a number to count withdrawal signatures to ensure each signature is different even if withdrawing the same amount to the same address */\n    mapping(address => uint) public withdrawCount;\n    /** Approve Amount to be Withdrawn */\n    mapping(address => uint) public approvedWithdrawAmount;\n    \n\t/** the maximum amount of tokens the user is allowed to deposit (with decimals) */\n\tuint public maxDeposit;\n\t/** the maximum withdrawal of tokens the user is allowed to withdraw on one day (only enforced when the tx is not sent from an authorized wallet) **/\n\tuint public maxWithdrawal;\n\t/** waiting time for withdrawal if not requested via the server **/\n\tuint public waitingTime;\n\t/** the address of the predecessor **/\n\taddress public predecessor;\n\n\t/** informs listeners how many tokens were deposited for a player */\n\tevent Deposit(address _player, uint _numTokens);\n\t/** informs listeners how many tokens were withdrawn from the player to the receiver address */\n\tevent Withdrawal(address _player, address _receiver, uint _numTokens);\n\t\n\t/** the most recent known state of a state channel */\n\tmapping(address => State) public lastState;\n\t/** fired when the state is updated */\n\tevent StateUpdate(address player, uint128 nonce, int128 newBalance,  int difference, int128 lastBalance);\n    /** fired if one of the parties chooses to log the seeds and results */\n    event GameData(address player, bytes32[] serverSeeds, bytes32[] clientSeeds, int[] results, uint gasCost);\n  \n\tstruct State{\n\t\tuint128 nonce;\n\t\tint128 newBalance;\n\t\tuint8 category;\n\t}\n\n\n\t/**\n\t * Constructor.\n\t * @param depositLimit    the maximum deposit allowed\n\t *\t\t  predecessorAddr the address of the predecessing contract\n\t * */\n\tfunction CasinoBank(uint depositLimit, address predecessorAddr) internal {\n\t\tmaxDeposit = depositLimit;\n\t\tmaxWithdrawal = maxDeposit;\n\t\twaitingTime = 1 minutes;\n\t\tpredecessor = predecessorAddr;\n\t}\n\n\t/**\n        * accepts deposits for an arbitrary address.\n        * retrieves tokens from the message sender and adds them to the balance of the specified address.\n        * edgeless tokens do not have any decimals, but are represented on this contract with decimals.\n        * @param receiver  address of the receiver\n        *        numTokens number of tokens to deposit (0 decimals)\n        *\t\t\t\t chargeGas indicates if the gas cost is subtracted from the user's edgeless token balance\n\t **/\n\tfunction deposit(address receiver, uint numTokens, uint128 nonce) public isAlive {\n\t\trequire(numTokens > 0);\n\t\tuint value = numTokens;\n\t\tuint newBalance = safeAdd(balanceOf[receiver], value);\n\t\trequire(newBalance <= maxDeposit);\n\t\tassert(edg.transferFrom(msg.sender, address(this), numTokens));\n\t\tbalanceOf[receiver] = newBalance;\n        lastState[receiver] = State(nonce, int128(newBalance), 2);\n\t\temit Deposit(receiver, numTokens);\n\t}\n\t\n\tfunction cancelWithdraw() public  {\n        approveWithdraw[msg.sender] = 0;\n\t}\n\n\n\t/**\n\t * If the user wants/needs to withdraw his funds himself, he needs to request the withdrawal first.\n\t * This method sets the earliest possible withdrawal date to 'waitingTime from now (default 90m, but up to 24h).\n\t * Reason: The user should not be able to withdraw his funds, while the the last game methods have not yet been mined.\n\t **/\n\t\n\tfunction aproveWithdraw(address _address, uint amount) public onlyAuthorized {\n        approveWithdraw[_address] = amount;\n\t}\n\n\n\t/**\n\t * withdraws an amount from the user balance if the waiting time passed since the request.\n\t * @param amount the amount of tokens to withdraw\n\t **/\n\tfunction withdraw(uint amount) public keepAlive {\n        require(approveWithdraw[msg.sender] >= amount);\n\t\trequire(amount <= maxWithdrawal);\n        approveWithdraw[msg.sender] = 0;\n\t\tuint value = amount;\n\t\tbalanceOf[msg.sender] = safeSub(balanceOf[msg.sender], value);\n\t\tassert(edg.transfer(msg.sender, amount));\n\t\temit Withdrawal(msg.sender, msg.sender, amount);\n\t}\n\n\t/**\n\t * lets the owner withdraw from the bankroll\n\t * @param receiver the receiver's address\n\t *\t\t\t\tnumTokens the number of tokens to withdraw (0 decimals)\n\t **/\n\tfunction withdrawBankroll(address receiver, uint numTokens) public onlyAuthorized {\n\t\trequire(numTokens <= bankroll());\n\t\trequire(allowedReceiver[receiver]);\n        require(approveWithdraw[receiver] >= numTokens);\n        approveWithdraw[msg.sender] = 0;\n\t\tassert(edg.transfer(receiver, numTokens));\n\t}\n\n\t/**\n\t * returns the current bankroll in tokens with 0 decimals\n\t **/\n\tfunction bankroll() view public returns(uint) {\n\t\treturn safeSub(edg.balanceOf(address(this)), playerBalance);\n\t}\n\n    /**\n      * Update Total player Balance    \n     */\n    function updatePlayerBalance(uint updateAmount) public onlyAuthorized keepAlive returns(uint) {\n        playerBalance = updateAmount;\n        return playerBalance;\n    }\n\n\t/**\n\t * updates the maximum deposit.\n\t * @param newMax the new maximum deposit (0 decimals)\n\t **/\n\tfunction setMaxDeposit(uint newMax) public onlyAuthorized {\n\t\tmaxDeposit = newMax;\n\t}\n\t\n\t/**\n\t * updates the maximum withdrawal.\n\t * @param newMax the new maximum withdrawal (0 decimals)\n\t **/\n\tfunction setMaxWithdrawal(uint newMax) public onlyAuthorized {\n\t\tmaxWithdrawal = newMax;\n\t}\n\n\t/**\n\t * sets the time the player has to wait for his funds to be unlocked before withdrawal (if not withdrawing with help of the casino server).\n\t * the time may not be longer than 24 hours.\n\t * @param newWaitingTime the new waiting time in seconds\n\t * */\n\tfunction setWaitingTime(uint newWaitingTime) public onlyAuthorized  {\n\t\trequire(newWaitingTime <= 24 hours);\n\t\twaitingTime = newWaitingTime;\n\t}\n\n\t/**\n\t * transfers an amount from the contract balance to the owner's wallet.\n\t * @param receiver the receiver address\n\t *\t\t\t\t amount   the amount of tokens to withdraw (0 decimals)\n\t *\t\t\t\t v,r,s \t\tthe signature of the player\n\t **/\n\tfunction withdrawFor(address receiver, uint amount, uint8 v, bytes32 r, bytes32 s) public onlyAuthorized keepAlive {\n\t\taddress player = ecrecover(keccak256(receiver, amount, withdrawCount[receiver]), v, r, s);\n\t\twithdrawCount[receiver]++;\n\t\tuint value = amount;\n\t\tbalanceOf[player] = safeSub(balanceOf[player], value);\n\t\tassert(edg.transfer(receiver, amount));\n\t\temit Withdrawal(player, receiver, amount);\n\t}\n\t\n\t/**\n\t * transfers the player's tokens directly to the new casino contract after an update.\n\t * @param newCasino the address of the new casino contract\n\t *\t\t  v, r, s   the signature of the player\n\t *\t\t  chargeGas indicates if the gas cost is payed by the player.\n\t * */\n\tfunction transferToNewContract(address newCasino, uint8 v, bytes32 r, bytes32 s, bool chargeGas) public onlyAuthorized keepAlive {\n\t\taddress player = ecrecover(keccak256(address(this), newCasino), v, r, s);\n\t\tuint value = balanceOf[player];\n\t\tbalanceOf[player] = 0;\n\t\tassert(edg.transfer(newCasino, value));\n\t\temit Withdrawal(player, newCasino, value);\n\t\tCasinoBank cb = CasinoBank(newCasino);\n\t\tassert(cb.credit(player, value));\n\t}\n\t\n\t/**\n\t * receive a player balance from the predecessor contract.\n\t * @param player the address of the player to credit the value for\n\t *\t\t\t\tvalue  the number of tokens to credit (0 decimals)\n\t * */\n\tfunction credit(address player, uint value) public returns(bool) {\n\t\trequire(msg.sender == predecessor);\n\t\tuint valueWithDecimals = value;\n\t\tbalanceOf[player] = safeAdd(balanceOf[player], valueWithDecimals);\n\t\temit Deposit(player, value);\n\t\treturn true;\n\t}\n\n\t/**\n\t * lets the owner close the contract if there are no player funds on it or if nobody has been using it for at least 30 days\n\t * */\n\tfunction close() public onlyOwner {\n\t\tcloseContract(playerBalance);\n\t}\n}\n\n\ncontract States5 is CasinoBank{\n\t\n  /**\n  * creates a new edgeless casino contract.\n  * @param predecessorAddress the address of the predecessing contract\n\t*\t\t\t\t tokenContract      the address of the Edgeless token contract\n\t* \t\t\t depositLimit       the maximum deposit allowed\n\t* \t\t\t kGasPrice\t\t\tthe price per kGas in WEI\n  **/\n  function States5(address predecessorAddress, address tokenContract, uint depositLimit, uint kGasPrice) CasinoBank(depositLimit, predecessorAddress) Mortal(tokenContract) public{\n\n  }\n  \n\n    /**\n    * updates a state channel. can be called by both parties.\n    * 1. verifies the signature.\n    * 2. verifies if the signed game-count is higher than the last known game-count of this channel.\n    * 3. updates the balances accordingly. This means: It checks the already performed updates for this channel and computes\n    *    the new balance difference to add or subtract from the players balance.\n    * @param newBalance the current win or loss\n    *\t\t\t\tnonce  the number of signed game moves\n    *\t\t\t\tv,r,s      the signature of either the casino or the player\n    *        chargeGas  indicates if the gas costs should be subtracted from the player's balance\n    * */\n    function updateState(int128 newBalance,  uint128 nonce, uint8 category, uint8 v, bytes32 r, bytes32 s) public onlyAuthorized{\n        address player = determinePlayer(newBalance, nonce, category, v, r, s);\n        if(player == msg.sender)//if the player closes the state channel himself, make sure the signer is a casino wallet\n            require(authorized[ecrecover(keccak256(player, nonce, category), v, r, s)]);\n        _updateState(player, newBalance, category, nonce);\n    }\n    \n\t/**\n\t* internal method to perform the actual state update.\n\t* @param player the player address\n\t*        newBalance the player's win balance\n\t*        nonce  the player's game count\n\t* */\n\tfunction _updateState(address player, int128 newBalance, uint8 category, uint128 nonce) internal {\n\t\tState storage last = lastState[player];\n        int128 lastBalance = last.newBalance;\n        int difference = updatePlayerBalance(player, newBalance, lastBalance);\n        require(newBalance > 0);\n\t\tlastState[player] = State(nonce, newBalance, category);\n\t\temit StateUpdate(player, nonce, newBalance, difference, lastBalance);\n\t}\n\n  /**\n   * determines if the msg.sender or the signer of the passed signature is the player. returns the player's address\n   * @param newBalance the current newBalance, used to calculate the msg hash\n   *\t\t\t\tnonce  the current nonce, used to calculate the msg.hash\n   *\t\t\t\tv, r, s    the signature of the non-sending party\n   * */\n  \tfunction determinePlayer(int128 newBalance, uint128 nonce, uint8 category, uint8 v, bytes32 r, bytes32 s) view returns(address){\n\t\t\tif (authorized[msg.sender])  //casino is the sender -> player is the signer\n\t\t\t\treturn ecrecover(prefixed(keccak256(newBalance, nonce, category)), v, r, s);\n\t\t\telse\n\t\t\t\treturn msg.sender;\n  \t}\n\n\t   /// builds a prefixed hash to mimic the behavior of eth_sign.\n    function prefixed(bytes32 _hash) internal pure returns (bytes32) {\n        return keccak256(abi.encodePacked(\"\\x19Ethereum Signed Message:\\n32\", _hash));\n    }\n\n\t/**\n\t * computes the difference of the win balance relative to the last known state and adds it to the player's balance.\n\t * in case the casino is the sender, the gas cost in EDG gets subtracted from the player's balance.\n\t * @param player the address of the player\n\t *\t\t\t\tnewBalance the current win-balance\n\t *\t\t\t\tlastnewBalance the win-balance of the last known state\n\t *\t\t\t\tgasCost the gas cost of the tx\n\t * */\n\tfunction updatePlayerBalance(address player, int128 newBalance, int128 lastBalance) internal returns(int difference){\n        difference = safeSub(newBalance, lastBalance);\n        uint positiveDifference;\n\t\tif(difference < 0){\n            // if user lost bet\n            positiveDifference = uint256(difference * (-1));\n            balanceOf[player] = uint256(newBalance);\n\t\t} else {\n            // if user won bet\n            positiveDifference = uint256(difference);\n            balanceOf[player] = uint256(newBalance);\n\t\t} \n\t}\n\n}",
    "sourcePath": "/Users/ruipedro/Desktop/BetProtocol/ethereum-tools/contracts/States5.sol",
    "compiler": {
        "name": "solc",
        "version": "0.4.24+commit.e67f0147.Emscripten.clang"
    },
    "schemaVersion": "2.0.1",
    "updatedAt": "2019-06-06T19:21:26.556Z"
}