{
  "contractName": "CasinoProtocolStates",
  "abi": [
    {
      "constant": true,
      "inputs": [],
      "name": "bankroll",
      "outputs": [
        {
          "name": "",
          "type": "uint256"
        }
      ],
      "payable": false,
      "stateMutability": "view",
      "type": "function"
    },
    {
      "constant": false,
      "inputs": [
        {
          "name": "receiver",
          "type": "address"
        }
      ],
      "name": "disallowReceiver",
      "outputs": [],
      "payable": false,
      "stateMutability": "nonpayable",
      "type": "function"
    },
    {
      "constant": false,
      "inputs": [
        {
          "name": "signatures",
          "type": "bytes4[5]"
        },
        {
          "name": "gasNeeded",
          "type": "uint256[5]"
        }
      ],
      "name": "setGasUsage",
      "outputs": [],
      "payable": false,
      "stateMutability": "nonpayable",
      "type": "function"
    },
    {
      "constant": true,
      "inputs": [
        {
          "name": "",
          "type": "address"
        }
      ],
      "name": "lastState",
      "outputs": [
        {
          "name": "count",
          "type": "uint128"
        },
        {
          "name": "winBalance",
          "type": "int128"
        },
        {
          "name": "category",
          "type": "uint8"
        }
      ],
      "payable": false,
      "stateMutability": "view",
      "type": "function"
    },
    {
      "constant": false,
      "inputs": [
        {
          "name": "addr",
          "type": "address"
        }
      ],
      "name": "deauthorize",
      "outputs": [],
      "payable": false,
      "stateMutability": "nonpayable",
      "type": "function"
    },
    {
      "constant": false,
      "inputs": [
        {
          "name": "amount",
          "type": "uint256"
        }
      ],
      "name": "withdraw",
      "outputs": [],
      "payable": false,
      "stateMutability": "nonpayable",
      "type": "function"
    },
    {
      "constant": false,
      "inputs": [
        {
          "name": "newMax",
          "type": "uint256"
        }
      ],
      "name": "setMaxWithdrawal",
      "outputs": [],
      "payable": false,
      "stateMutability": "nonpayable",
      "type": "function"
    },
    {
      "constant": false,
      "inputs": [
        {
          "name": "receiver",
          "type": "address"
        },
        {
          "name": "numTokens",
          "type": "uint256"
        },
        {
          "name": "chargeGas",
          "type": "bool"
        }
      ],
      "name": "deposit",
      "outputs": [],
      "payable": false,
      "stateMutability": "nonpayable",
      "type": "function"
    },
    {
      "constant": false,
      "inputs": [],
      "name": "close",
      "outputs": [],
      "payable": false,
      "stateMutability": "nonpayable",
      "type": "function"
    },
    {
      "constant": true,
      "inputs": [
        {
          "name": "",
          "type": "address"
        }
      ],
      "name": "withdrawAfter",
      "outputs": [
        {
          "name": "",
          "type": "uint256"
        }
      ],
      "payable": false,
      "stateMutability": "view",
      "type": "function"
    },
    {
      "constant": true,
      "inputs": [
        {
          "name": "",
          "type": "address"
        }
      ],
      "name": "withdrawCount",
      "outputs": [
        {
          "name": "",
          "type": "uint256"
        }
      ],
      "payable": false,
      "stateMutability": "view",
      "type": "function"
    },
    {
      "constant": true,
      "inputs": [],
      "name": "maxDeposit",
      "outputs": [
        {
          "name": "",
          "type": "uint256"
        }
      ],
      "payable": false,
      "stateMutability": "view",
      "type": "function"
    },
    {
      "constant": true,
      "inputs": [],
      "name": "playerBalance",
      "outputs": [
        {
          "name": "",
          "type": "uint256"
        }
      ],
      "payable": false,
      "stateMutability": "view",
      "type": "function"
    },
    {
      "constant": false,
      "inputs": [
        {
          "name": "newCasino",
          "type": "address"
        },
        {
          "name": "v",
          "type": "uint8"
        },
        {
          "name": "r",
          "type": "bytes32"
        },
        {
          "name": "s",
          "type": "bytes32"
        },
        {
          "name": "chargeGas",
          "type": "bool"
        }
      ],
      "name": "transferToNewContract",
      "outputs": [],
      "payable": false,
      "stateMutability": "nonpayable",
      "type": "function"
    },
    {
      "constant": true,
      "inputs": [
        {
          "name": "",
          "type": "address"
        }
      ],
      "name": "balanceOf",
      "outputs": [
        {
          "name": "",
          "type": "uint256"
        }
      ],
      "payable": false,
      "stateMutability": "view",
      "type": "function"
    },
    {
      "constant": true,
      "inputs": [],
      "name": "oneEDG",
      "outputs": [
        {
          "name": "",
          "type": "uint256"
        }
      ],
      "payable": false,
      "stateMutability": "view",
      "type": "function"
    },
    {
      "constant": true,
      "inputs": [],
      "name": "maxWithdrawal",
      "outputs": [
        {
          "name": "",
          "type": "uint256"
        }
      ],
      "payable": false,
      "stateMutability": "view",
      "type": "function"
    },
    {
      "constant": true,
      "inputs": [],
      "name": "owner",
      "outputs": [
        {
          "name": "",
          "type": "address"
        }
      ],
      "payable": false,
      "stateMutability": "view",
      "type": "function"
    },
    {
      "constant": false,
      "inputs": [
        {
          "name": "receiver",
          "type": "address"
        },
        {
          "name": "amount",
          "type": "uint256"
        },
        {
          "name": "v",
          "type": "uint8"
        },
        {
          "name": "r",
          "type": "bytes32"
        },
        {
          "name": "s",
          "type": "bytes32"
        }
      ],
      "name": "withdrawFor",
      "outputs": [],
      "payable": false,
      "stateMutability": "nonpayable",
      "type": "function"
    },
    {
      "constant": false,
      "inputs": [
        {
          "name": "newOwner",
          "type": "address"
        }
      ],
      "name": "changeOwner",
      "outputs": [],
      "payable": false,
      "stateMutability": "nonpayable",
      "type": "function"
    },
    {
      "constant": true,
      "inputs": [],
      "name": "closeAt",
      "outputs": [
        {
          "name": "",
          "type": "uint256"
        }
      ],
      "payable": false,
      "stateMutability": "view",
      "type": "function"
    },
    {
      "constant": true,
      "inputs": [],
      "name": "waitingTime",
      "outputs": [
        {
          "name": "",
          "type": "uint256"
        }
      ],
      "payable": false,
      "stateMutability": "view",
      "type": "function"
    },
    {
      "constant": true,
      "inputs": [
        {
          "name": "",
          "type": "bytes4"
        }
      ],
      "name": "gasPerTx",
      "outputs": [
        {
          "name": "",
          "type": "uint256"
        }
      ],
      "payable": false,
      "stateMutability": "view",
      "type": "function"
    },
    {
      "constant": true,
      "inputs": [
        {
          "name": "",
          "type": "address"
        }
      ],
      "name": "allowedReceiver",
      "outputs": [
        {
          "name": "",
          "type": "bool"
        }
      ],
      "payable": false,
      "stateMutability": "view",
      "type": "function"
    },
    {
      "constant": false,
      "inputs": [
        {
          "name": "addr",
          "type": "address"
        }
      ],
      "name": "authorize",
      "outputs": [],
      "payable": false,
      "stateMutability": "nonpayable",
      "type": "function"
    },
    {
      "constant": true,
      "inputs": [],
      "name": "predecessor",
      "outputs": [
        {
          "name": "",
          "type": "address"
        }
      ],
      "payable": false,
      "stateMutability": "view",
      "type": "function"
    },
    {
      "constant": true,
      "inputs": [
        {
          "name": "",
          "type": "address"
        }
      ],
      "name": "authorized",
      "outputs": [
        {
          "name": "",
          "type": "bool"
        }
      ],
      "payable": false,
      "stateMutability": "view",
      "type": "function"
    },
    {
      "constant": false,
      "inputs": [
        {
          "name": "newMax",
          "type": "uint256"
        }
      ],
      "name": "setMaxDeposit",
      "outputs": [],
      "payable": false,
      "stateMutability": "nonpayable",
      "type": "function"
    },
    {
      "constant": false,
      "inputs": [
        {
          "name": "receiver",
          "type": "address"
        }
      ],
      "name": "allowReceiver",
      "outputs": [],
      "payable": false,
      "stateMutability": "nonpayable",
      "type": "function"
    },
    {
      "constant": false,
      "inputs": [
        {
          "name": "price",
          "type": "uint256"
        }
      ],
      "name": "setGasPrice",
      "outputs": [],
      "payable": false,
      "stateMutability": "nonpayable",
      "type": "function"
    },
    {
      "constant": false,
      "inputs": [],
      "name": "requestWithdrawal",
      "outputs": [],
      "payable": false,
      "stateMutability": "nonpayable",
      "type": "function"
    },
    {
      "constant": true,
      "inputs": [],
      "name": "gasPayback",
      "outputs": [
        {
          "name": "",
          "type": "uint256"
        }
      ],
      "payable": false,
      "stateMutability": "view",
      "type": "function"
    },
    {
      "constant": false,
      "inputs": [],
      "name": "cancelWithdrawalRequest",
      "outputs": [],
      "payable": false,
      "stateMutability": "nonpayable",
      "type": "function"
    },
    {
      "constant": false,
      "inputs": [
        {
          "name": "receiver",
          "type": "address"
        },
        {
          "name": "numTokens",
          "type": "uint256"
        }
      ],
      "name": "withdrawBankroll",
      "outputs": [],
      "payable": false,
      "stateMutability": "nonpayable",
      "type": "function"
    },
    {
      "constant": false,
      "inputs": [
        {
          "name": "newWaitingTime",
          "type": "uint256"
        }
      ],
      "name": "setWaitingTime",
      "outputs": [],
      "payable": false,
      "stateMutability": "nonpayable",
      "type": "function"
    },
    {
      "constant": false,
      "inputs": [
        {
          "name": "player",
          "type": "address"
        },
        {
          "name": "value",
          "type": "uint256"
        }
      ],
      "name": "credit",
      "outputs": [
        {
          "name": "",
          "type": "bool"
        }
      ],
      "payable": false,
      "stateMutability": "nonpayable",
      "type": "function"
    },
    {
      "constant": false,
      "inputs": [],
      "name": "withdrawGasPayback",
      "outputs": [],
      "payable": false,
      "stateMutability": "nonpayable",
      "type": "function"
    },
    {
      "constant": false,
      "inputs": [],
      "name": "open",
      "outputs": [],
      "payable": false,
      "stateMutability": "nonpayable",
      "type": "function"
    },
    {
      "constant": true,
      "inputs": [],
      "name": "gasPrice",
      "outputs": [
        {
          "name": "",
          "type": "uint256"
        }
      ],
      "payable": false,
      "stateMutability": "view",
      "type": "function"
    },
    {
      "inputs": [
        {
          "name": "predecessorAddress",
          "type": "address"
        },
        {
          "name": "tokenContract",
          "type": "address"
        },
        {
          "name": "depositLimit",
          "type": "uint256"
        },
        {
          "name": "kGasPrice",
          "type": "uint256"
        }
      ],
      "payable": false,
      "stateMutability": "nonpayable",
      "type": "constructor"
    },
    {
      "anonymous": false,
      "inputs": [
        {
          "indexed": false,
          "name": "player",
          "type": "address"
        },
        {
          "indexed": false,
          "name": "count",
          "type": "uint128"
        },
        {
          "indexed": false,
          "name": "winBalance",
          "type": "int128"
        },
        {
          "indexed": false,
          "name": "difference",
          "type": "int256"
        },
        {
          "indexed": false,
          "name": "gasCost",
          "type": "uint256"
        }
      ],
      "name": "StateUpdate",
      "type": "event"
    },
    {
      "anonymous": false,
      "inputs": [
        {
          "indexed": false,
          "name": "player",
          "type": "address"
        },
        {
          "indexed": false,
          "name": "serverSeeds",
          "type": "bytes32[]"
        },
        {
          "indexed": false,
          "name": "clientSeeds",
          "type": "bytes32[]"
        },
        {
          "indexed": false,
          "name": "results",
          "type": "int256[]"
        },
        {
          "indexed": false,
          "name": "gasCost",
          "type": "uint256"
        }
      ],
      "name": "GameData",
      "type": "event"
    },
    {
      "anonymous": false,
      "inputs": [
        {
          "indexed": false,
          "name": "_player",
          "type": "address"
        },
        {
          "indexed": false,
          "name": "_numTokens",
          "type": "uint256"
        },
        {
          "indexed": false,
          "name": "_gasCost",
          "type": "uint256"
        }
      ],
      "name": "Deposit",
      "type": "event"
    },
    {
      "anonymous": false,
      "inputs": [
        {
          "indexed": false,
          "name": "_player",
          "type": "address"
        },
        {
          "indexed": false,
          "name": "_receiver",
          "type": "address"
        },
        {
          "indexed": false,
          "name": "_numTokens",
          "type": "uint256"
        },
        {
          "indexed": false,
          "name": "_gasCost",
          "type": "uint256"
        }
      ],
      "name": "Withdrawal",
      "type": "event"
    },
    {
      "constant": false,
      "inputs": [
        {
          "name": "winBalances",
          "type": "int128[]"
        },
        {
          "name": "nonces",
          "type": "uint128[]"
        },
        {
          "name": "categories",
          "type": "uint8[]"
        },
        {
          "name": "v",
          "type": "uint8[]"
        },
        {
          "name": "r",
          "type": "bytes32[]"
        },
        {
          "name": "s",
          "type": "bytes32[]"
        },
        {
          "name": "chargeGas",
          "type": "bool"
        }
      ],
      "name": "updateBatch",
      "outputs": [],
      "payable": false,
      "stateMutability": "nonpayable",
      "type": "function"
    },
    {
      "constant": false,
      "inputs": [
        {
          "name": "winBalance",
          "type": "int128"
        },
        {
          "name": "nonce",
          "type": "uint128"
        },
        {
          "name": "category",
          "type": "uint8"
        },
        {
          "name": "v",
          "type": "uint8"
        },
        {
          "name": "r",
          "type": "bytes32"
        },
        {
          "name": "s",
          "type": "bytes32"
        },
        {
          "name": "chargeGas",
          "type": "bool"
        }
      ],
      "name": "updateState",
      "outputs": [],
      "payable": false,
      "stateMutability": "nonpayable",
      "type": "function"
    },
    {
      "constant": false,
      "inputs": [
        {
          "name": "serverSeeds",
          "type": "bytes32[]"
        },
        {
          "name": "clientSeeds",
          "type": "bytes32[]"
        },
        {
          "name": "results",
          "type": "int256[]"
        },
        {
          "name": "v",
          "type": "uint8"
        },
        {
          "name": "r",
          "type": "bytes32"
        },
        {
          "name": "s",
          "type": "bytes32"
        }
      ],
      "name": "logGameData",
      "outputs": [],
      "payable": false,
      "stateMutability": "nonpayable",
      "type": "function"
    },
    {
      "constant": true,
      "inputs": [
        {
          "name": "winBalance",
          "type": "int128"
        },
        {
          "name": "nonce",
          "type": "uint128"
        },
        {
          "name": "category",
          "type": "uint8"
        },
        {
          "name": "v",
          "type": "uint8"
        },
        {
          "name": "r",
          "type": "bytes32"
        },
        {
          "name": "s",
          "type": "bytes32"
        }
      ],
      "name": "determinePlayer",
      "outputs": [
        {
          "name": "",
          "type": "address"
        }
      ],
      "payable": false,
      "stateMutability": "view",
      "type": "function"
    }
  ],
  "bytecode": "0x60806040523480156200001157600080fd5b5060405160808062004a3f83398101806040528101908080519060200190929190805190602001909291908051906020019092919080519060200190929190505050818482620000606200059a565b6200006a620005bd565b87336000806101000a81548173ffffffffffffffffffffffffffffffffffffffff021916908373ffffffffffffffffffffffffffffffffffffffff16021790555080600260006101000a81548173ffffffffffffffffffffffffffffffffffffffff021916908373ffffffffffffffffffffffffffffffffffffffff160217905550506001600360003373ffffffffffffffffffffffffffffffffffffffff1673ffffffffffffffffffffffffffffffffffffffff16815260200190815260200160002060006101000a81548160ff0219169083151502179055506001600460003373ffffffffffffffffffffffffffffffffffffffff1673ffffffffffffffffffffffffffffffffffffffff16815260200190815260200160002060006101000a81548160ff02191690831515021790555060a060405190810160405280633edd11287c0100000000000000000000000000000000000000000000000000000000027bffffffffffffffffffffffffffffffffffffffffffffffffffffffff19167bffffffffffffffffffffffffffffffffffffffffffffffffffffffff19168152602001639607610a7c0100000000000000000000000000000000000000000000000000000000027bffffffffffffffffffffffffffffffffffffffffffffffffffffffff1916815260200163de48ff527c0100000000000000000000000000000000000000000000000000000000027bffffffffffffffffffffffffffffffffffffffffffffffffffffffff1916815260200163c97b6d1f7c0100000000000000000000000000000000000000000000000000000000027bffffffffffffffffffffffffffffffffffffffffffffffffffffffff19168152602001636bf06fde7c0100000000000000000000000000000000000000000000000000000000027bffffffffffffffffffffffffffffffffffffffffffffffffffffffff1916815250915060a06040519081016040528060928152602001606481526020016041815260200160328152602001605581525090506200037a828262000403640100000000026401000000009004565b620003948362000518640100000000026401000000009004565b505050620186a08202600c81905550600c54600d8190555062015180600e8190555080600f60006101000a81548173ffffffffffffffffffffffffffffffffffffffff021916908373ffffffffffffffffffffffffffffffffffffffff160217905550505050505050620005e0565b60008060009054906101000a900473ffffffffffffffffffffffffffffffffffffffff1673ffffffffffffffffffffffffffffffffffffffff163373ffffffffffffffffffffffffffffffffffffffff161415156200046157600080fd5b6005801415156200047157600080fd5b600090505b60058160ff1610156200051357818160ff166005811015156200049557fe5b602002015160066000858460ff16600581101515620004b057fe5b60200201517bffffffffffffffffffffffffffffffffffffffffffffffffffffffff19167bffffffffffffffffffffffffffffffffffffffffffffffffffffffff1916815260200190815260200160002081905550808060010191505062000476565b505050565b600360003373ffffffffffffffffffffffffffffffffffffffff1673ffffffffffffffffffffffffffffffffffffffff16815260200190815260200160002060009054906101000a900460ff1615156200057157600080fd5b600a620186a08115156200058157fe5b04811015156200059057600080fd5b8060058190555050565b60a060405190810160405280600590602082028038833980820191505090505090565b60a060405190810160405280600590602082028038833980820191505090505090565b61444f80620005f06000396000f30060806040526004361061020f576000357c0100000000000000000000000000000000000000000000000000000000900463ffffffff1680630102305b146102145780630c657eb0146103295780631ae32b82146103545780631c040f0a146103975780631e33a6d514610558578063203faa89146105d957806327c97fa51461066e5780632e1a7d4d146106b15780633926384d146106de5780633edd11281461070b57806343d726d6146107645780634659f42a1461077b5780634f23618f146107d25780636083e59a14610829578063651f066a146108545780636bf06fde1461087f57806370a08231146108f757806371bf00831461094e5780637ab4e96814610a105780638c0ff5b714610a3b5780638da5cb5b14610a665780639607610a14610abd578063a6f9dae114610b33578063a985408714610b76578063aa13e8c214610ba1578063ad8ce06b14610bcc578063b2d92f9514610c2c578063b2f5e6c214610cba578063b6a5d7de14610d15578063b719d03214610d58578063b918161114610daf578063bb371fdd14610e0a578063bb75023214610e37578063bf1fe42014610e7a578063dbaf214514610ea7578063e1538b3214610ebe578063e714a02814610ee9578063e9e3074614610f00578063ebc73e6514610f4d578063ef6506db14610f7a578063f66e86bb14610fdf578063fcfff16f14610ff6578063fe173b971461100d575b600080fd5b34801561022057600080fd5b50610327600480360381019080803590602001908201803590602001908080602002602001604051908101604052809392919081815260200183836020028082843782019150505050505091929192908035906020019082018035906020019080806020026020016040519081016040528093929190818152602001838360200280828437820191505050505050919291929080359060200190820180359060200190808060200260200160405190810160405280939291908181526020018383602002808284378201915050505050509192919290803560ff16906020019092919080356000191690602001909291908035600019169060200190929190505050611038565b005b34801561033557600080fd5b5061033e61129d565b6040518082815260200191505060405180910390f35b34801561036057600080fd5b50610395600480360381019080803573ffffffffffffffffffffffffffffffffffffffff1690602001909291905050506113c0565b005b3480156103a357600080fd5b50610556600480360381019080803590602001908201803590602001908080602002602001604051908101604052809392919081815260200183836020028082843782019150505050505091929192908035906020019082018035906020019080806020026020016040519081016040528093929190818152602001838360200280828437820191505050505050919291929080359060200190820180359060200190808060200260200160405190810160405280939291908181526020018383602002808284378201915050505050509192919290803590602001908201803590602001908080602002602001604051908101604052809392919081815260200183836020028082843782019150505050505091929192908035906020019082018035906020019080806020026020016040519081016040528093929190818152602001838360200280828437820191505050505050919291929080359060200190820180359060200190808060200260200160405190810160405280939291908181526020018383602002808284378201915050505050509192919290803515159060200190929190505050611476565b005b34801561056457600080fd5b506105d76004803603810190808060a001906005806020026040519081016040528092919082600560200280828437820191505050505091929192908060a001906005806020026040519081016040528092919082600560200280828437820191505050505091929192905050506117c7565b005b3480156105e557600080fd5b5061061a600480360381019080803573ffffffffffffffffffffffffffffffffffffffff1690602001909291905050506118d6565b60405180846fffffffffffffffffffffffffffffffff166fffffffffffffffffffffffffffffffff16815260200183600f0b600f0b81526020018260ff1660ff168152602001935050505060405180910390f35b34801561067a57600080fd5b506106af600480360381019080803573ffffffffffffffffffffffffffffffffffffffff169060200190929190505050611936565b005b3480156106bd57600080fd5b506106dc600480360381019080803590602001909291905050506119ec565b005b3480156106ea57600080fd5b5061070960048036038101908080359060200190929190505050611d54565b005b34801561071757600080fd5b50610762600480360381019080803573ffffffffffffffffffffffffffffffffffffffff16906020019092919080359060200190929190803515159060200190929190505050611dbb565b005b34801561077057600080fd5b50610779612086565b005b34801561078757600080fd5b506107bc600480360381019080803573ffffffffffffffffffffffffffffffffffffffff1690602001909291905050506120ee565b6040518082815260200191505060405180910390f35b3480156107de57600080fd5b50610813600480360381019080803573ffffffffffffffffffffffffffffffffffffffff169060200190929190505050612106565b6040518082815260200191505060405180910390f35b34801561083557600080fd5b5061083e61211e565b6040518082815260200191505060405180910390f35b34801561086057600080fd5b50610869612124565b6040518082815260200191505060405180910390f35b34801561088b57600080fd5b506108f5600480360381019080803573ffffffffffffffffffffffffffffffffffffffff169060200190929190803560ff1690602001909291908035600019169060200190929190803560001916906020019092919080351515906020019092919050505061212a565b005b34801561090357600080fd5b50610938600480360381019080803573ffffffffffffffffffffffffffffffffffffffff1690602001909291905050506126dd565b6040518082815260200191505060405180910390f35b34801561095a57600080fd5b506109ce6004803603810190808035600f0b906020019092919080356fffffffffffffffffffffffffffffffff169060200190929190803560ff169060200190929190803560ff169060200190929190803560001916906020019092919080356000191690602001909291905050506126f5565b604051808273ffffffffffffffffffffffffffffffffffffffff1673ffffffffffffffffffffffffffffffffffffffff16815260200191505060405180910390f35b348015610a1c57600080fd5b50610a256128cf565b6040518082815260200191505060405180910390f35b348015610a4757600080fd5b50610a506128d6565b6040518082815260200191505060405180910390f35b348015610a7257600080fd5b50610a7b6128dc565b604051808273ffffffffffffffffffffffffffffffffffffffff1673ffffffffffffffffffffffffffffffffffffffff16815260200191505060405180910390f35b348015610ac957600080fd5b50610b31600480360381019080803573ffffffffffffffffffffffffffffffffffffffff16906020019092919080359060200190929190803560ff16906020019092919080356000191690602001909291908035600019169060200190929190505050612901565b005b348015610b3f57600080fd5b50610b74600480360381019080803573ffffffffffffffffffffffffffffffffffffffff169060200190929190505050612dde565b005b348015610b8257600080fd5b50610b8b612ee2565b6040518082815260200191505060405180910390f35b348015610bad57600080fd5b50610bb6612ee8565b6040518082815260200191505060405180910390f35b348015610bd857600080fd5b50610c1660048036038101908080357bffffffffffffffffffffffffffffffffffffffffffffffffffffffff19169060200190929190505050612eee565b6040518082815260200191505060405180910390f35b348015610c3857600080fd5b50610cb86004803603810190808035600f0b906020019092919080356fffffffffffffffffffffffffffffffff169060200190929190803560ff169060200190929190803560ff16906020019092919080356000191690602001909291908035600019169060200190929190803515159060200190929190505050612f06565b005b348015610cc657600080fd5b50610cfb600480360381019080803573ffffffffffffffffffffffffffffffffffffffff169060200190929190505050613195565b604051808215151515815260200191505060405180910390f35b348015610d2157600080fd5b50610d56600480360381019080803573ffffffffffffffffffffffffffffffffffffffff1690602001909291905050506131b5565b005b348015610d6457600080fd5b50610d6d61326b565b604051808273ffffffffffffffffffffffffffffffffffffffff1673ffffffffffffffffffffffffffffffffffffffff16815260200191505060405180910390f35b348015610dbb57600080fd5b50610df0600480360381019080803573ffffffffffffffffffffffffffffffffffffffff169060200190929190505050613291565b604051808215151515815260200191505060405180910390f35b348015610e1657600080fd5b50610e35600480360381019080803590602001909291905050506132b1565b005b348015610e4357600080fd5b50610e78600480360381019080803573ffffffffffffffffffffffffffffffffffffffff169060200190929190505050613318565b005b348015610e8657600080fd5b50610ea5600480360381019080803590602001909291905050506133ce565b005b348015610eb357600080fd5b50610ebc61344d565b005b348015610eca57600080fd5b50610ed3613497565b6040518082815260200191505060405180910390f35b348015610ef557600080fd5b50610efe61349d565b005b348015610f0c57600080fd5b50610f4b600480360381019080803573ffffffffffffffffffffffffffffffffffffffff169060200190929190803590602001909291905050506134e4565b005b348015610f5957600080fd5b50610f78600480360381019080803590602001909291905050506136b6565b005b348015610f8657600080fd5b50610fc5600480360381019080803573ffffffffffffffffffffffffffffffffffffffff1690602001909291908035906020019092919050505061372a565b604051808215151515815260200191505060405180910390f35b348015610feb57600080fd5b50610ff46138b5565b005b34801561100257600080fd5b5061100b613a71565b005b34801561101957600080fd5b50611022613ad6565b6040518082815260200191505060405180910390f35b600080611049888888888888613adc565b91503373ffffffffffffffffffffffffffffffffffffffff168273ffffffffffffffffffffffffffffffffffffffff1614151561114d576005546103e889516103000281151561109557fe5b046039010290506110e5600960008473ffffffffffffffffffffffffffffffffffffffff1673ffffffffffffffffffffffffffffffffffffffff1681526020019081526020016000205482613d3e565b600960008473ffffffffffffffffffffffffffffffffffffffff1673ffffffffffffffffffffffffffffffffffffffff1681526020019081526020016000208190555061113460085482613d3e565b60088190555061114660075482613d57565b6007819055505b7f1139e9be34b0b8aee07eb5c072c11de928d5e4c6d1b29bc68aea129464b62b008289898985604051808673ffffffffffffffffffffffffffffffffffffffff1673ffffffffffffffffffffffffffffffffffffffff168152602001806020018060200180602001858152602001848103845288818151815260200191508051906020019060200280838360005b838110156111f65780820151818401526020810190506111db565b50505050905001848103835287818151815260200191508051906020019060200280838360005b8381101561123857808201518184015260208101905061121d565b50505050905001848103825286818151815260200191508051906020019060200280838360005b8381101561127a57808201518184015260208101905061125f565b505050509050019850505050505050505060405180910390a15050505050505050565b60006113bb600260009054906101000a900473ffffffffffffffffffffffffffffffffffffffff1673ffffffffffffffffffffffffffffffffffffffff166370a08231306040518263ffffffff167c0100000000000000000000000000000000000000000000000000000000028152600401808273ffffffffffffffffffffffffffffffffffffffff1673ffffffffffffffffffffffffffffffffffffffff168152602001915050602060405180830381600087803b15801561135f57600080fd5b505af1158015611373573d6000803e3d6000fd5b505050506040513d602081101561138957600080fd5b8101908080519060200190929190505050620186a06113ac600854600754613d57565b8115156113b557fe5b04613d3e565b905090565b6000809054906101000a900473ffffffffffffffffffffffffffffffffffffffff1673ffffffffffffffffffffffffffffffffffffffff163373ffffffffffffffffffffffffffffffffffffffff1614151561141b57600080fd5b6000600460008373ffffffffffffffffffffffffffffffffffffffff1673ffffffffffffffffffffffffffffffffffffffff16815260200190815260200160002060006101000a81548160ff02191690831515021790555050565b6000806000600360003373ffffffffffffffffffffffffffffffffffffffff1673ffffffffffffffffffffffffffffffffffffffff16815260200190815260200160002060009054906101000a900460ff1615156114d357600080fd5b88518a511415156114e357600080fd5b86518a511415156114f357600080fd5b85518a5114151561150357600080fd5b84518a5114151561151357600080fd5b60328a511115151561152457600080fd5b60009150831561153957611536613d81565b91505b61154f60075461154a848d51613e20565b613d57565b600781905550600090505b89518160ff1610156117bb576001898260ff1681518110151561157957fe5b90602001906020020151898360ff1681518110151561159457fe5b9060200190602002015160405160200180836fffffffffffffffffffffffffffffffff166fffffffffffffffffffffffffffffffff167001000000000000000000000000000000000281526010018260ff1660ff167f0100000000000000000000000000000000000000000000000000000000000000028152600101925050506040516020818303038152906040526040518082805190602001908083835b6020831015156116585780518252602082019150602081019050602083039250611633565b6001836020036101000a0380198251168184511680821785525050505050509050019150506040518091039020888360ff1681518110151561169657fe5b90602001906020020151888460ff168151811015156116b157fe5b90602001906020020151888560ff168151811015156116cc57fe5b90602001906020020151604051600081526020016040526040518085600019166000191681526020018460ff1660ff1681526020018360001916600019168152602001826000191660001916815260200194505050505060206040516020810390808403906000865af1158015611747573d6000803e3d6000fd5b5050506020604051035192506117ae838b8360ff1681518110151561176857fe5b906020019060200201518a8460ff1681518110151561178357fe5b906020019060200201518c8560ff1681518110151561179e57fe5b9060200190602002015186613e53565b808060010191505061155a565b50505050505050505050565b60008060009054906101000a900473ffffffffffffffffffffffffffffffffffffffff1673ffffffffffffffffffffffffffffffffffffffff163373ffffffffffffffffffffffffffffffffffffffff1614151561182457600080fd5b60058014151561183357600080fd5b600090505b60058160ff1610156118d157818160ff1660058110151561185557fe5b602002015160066000858460ff1660058110151561186f57fe5b60200201517bffffffffffffffffffffffffffffffffffffffffffffffffffffffff19167bffffffffffffffffffffffffffffffffffffffffffffffffffffffff19168152602001908152602001600020819055508080600101915050611838565b505050565b60106020528060005260406000206000915090508060000160009054906101000a90046fffffffffffffffffffffffffffffffff16908060000160109054906101000a9004600f0b908060010160009054906101000a900460ff16905083565b6000809054906101000a900473ffffffffffffffffffffffffffffffffffffffff1673ffffffffffffffffffffffffffffffffffffffff163373ffffffffffffffffffffffffffffffffffffffff1614151561199157600080fd5b6000600360008373ffffffffffffffffffffffffffffffffffffffff1673ffffffffffffffffffffffffffffffffffffffff16815260200190815260200160002060006101000a81548160ff02191690831515021790555050565b6000806001541115611a055762278d0042016001819055505b600d548211151515611a1657600080fd5b6000600a60003373ffffffffffffffffffffffffffffffffffffffff1673ffffffffffffffffffffffffffffffffffffffff16815260200190815260200160002054118015611aa35750600a60003373ffffffffffffffffffffffffffffffffffffffff1673ffffffffffffffffffffffffffffffffffffffff1681526020019081526020016000205442115b1515611aae57600080fd5b6000600a60003373ffffffffffffffffffffffffffffffffffffffff1673ffffffffffffffffffffffffffffffffffffffff16815260200190815260200160002081905550611b0082620186a0613e20565b9050611b4b600960003373ffffffffffffffffffffffffffffffffffffffff1673ffffffffffffffffffffffffffffffffffffffff1681526020019081526020016000205482613d3e565b600960003373ffffffffffffffffffffffffffffffffffffffff1673ffffffffffffffffffffffffffffffffffffffff16815260200190815260200160002081905550611b9a60085482613d3e565b600881905550600260009054906101000a900473ffffffffffffffffffffffffffffffffffffffff1673ffffffffffffffffffffffffffffffffffffffff1663a9059cbb33846040518363ffffffff167c0100000000000000000000000000000000000000000000000000000000028152600401808373ffffffffffffffffffffffffffffffffffffffff1673ffffffffffffffffffffffffffffffffffffffff16815260200182815260200192505050602060405180830381600087803b158015611c6557600080fd5b505af1158015611c79573d6000803e3d6000fd5b505050506040513d6020811015611c8f57600080fd5b81019080805190602001909291905050501515611ca857fe5b7fc2b4a290c20fb28939d29f102514fbffd2b73c059ffba8b78250c94161d5fcc63333846000604051808573ffffffffffffffffffffffffffffffffffffffff1673ffffffffffffffffffffffffffffffffffffffff1681526020018473ffffffffffffffffffffffffffffffffffffffff1673ffffffffffffffffffffffffffffffffffffffff16815260200183815260200182815260200194505050505060405180910390a15050565b600360003373ffffffffffffffffffffffffffffffffffffffff1673ffffffffffffffffffffffffffffffffffffffff16815260200190815260200160002060009054906101000a900460ff161515611dac57600080fd5b620186a08102600d8190555050565b600080600080600154141515611dd057600080fd5b600085111515611ddf57600080fd5b611dec85620186a0613e20565b92508315611e1d57611dfc613d81565b9150611e088383613d3e565b9250611e1660075483613d57565b6007819055505b611e66600960008873ffffffffffffffffffffffffffffffffffffffff1673ffffffffffffffffffffffffffffffffffffffff1681526020019081526020016000205484613d57565b9050600c548111151515611e7957600080fd5b600260009054906101000a900473ffffffffffffffffffffffffffffffffffffffff1673ffffffffffffffffffffffffffffffffffffffff166323b872dd3330886040518463ffffffff167c0100000000000000000000000000000000000000000000000000000000028152600401808473ffffffffffffffffffffffffffffffffffffffff1673ffffffffffffffffffffffffffffffffffffffff1681526020018373ffffffffffffffffffffffffffffffffffffffff1673ffffffffffffffffffffffffffffffffffffffff1681526020018281526020019350505050602060405180830381600087803b158015611f7257600080fd5b505af1158015611f86573d6000803e3d6000fd5b505050506040513d6020811015611f9c57600080fd5b81019080805190602001909291905050501515611fb557fe5b80600960008873ffffffffffffffffffffffffffffffffffffffff1673ffffffffffffffffffffffffffffffffffffffff1681526020019081526020016000208190555061200560085484613d57565b6008819055507f90890809c654f11d6e72a28fa60149770a0d11ec6c92319d6ceb2bb0a4ea1a15868684604051808473ffffffffffffffffffffffffffffffffffffffff1673ffffffffffffffffffffffffffffffffffffffff168152602001838152602001828152602001935050505060405180910390a1505050505050565b6000809054906101000a900473ffffffffffffffffffffffffffffffffffffffff1673ffffffffffffffffffffffffffffffffffffffff163373ffffffffffffffffffffffffffffffffffffffff161415156120e157600080fd5b6120ec600854614084565b565b600a6020528060005260406000206000915090505481565b600b6020528060005260406000206000915090505481565b600c5481565b60085481565b600080600080600360003373ffffffffffffffffffffffffffffffffffffffff1673ffffffffffffffffffffffffffffffffffffffff16815260200190815260200160002060009054906101000a900460ff16151561218857600080fd5b600060015411156121a05762278d0042016001819055505b6001308a604051602001808373ffffffffffffffffffffffffffffffffffffffff1673ffffffffffffffffffffffffffffffffffffffff166c010000000000000000000000000281526014018273ffffffffffffffffffffffffffffffffffffffff1673ffffffffffffffffffffffffffffffffffffffff166c01000000000000000000000000028152601401925050506040516020818303038152906040526040518082805190602001908083835b6020831015156122755780518252602082019150602081019050602083039250612250565b6001836020036101000a0380198251168184511680821785525050505050509050019150506040518091039020898989604051600081526020016040526040518085600019166000191681526020018460ff1660ff1681526020018360001916600019168152602001826000191660001916815260200194505050505060206040516020810390808403906000865af1158015612316573d6000803e3d6000fd5b50505060206040510351935060009250841561233757612334613d81565b92505b612380600960008673ffffffffffffffffffffffffffffffffffffffff1673ffffffffffffffffffffffffffffffffffffffff1681526020019081526020016000205484613d3e565b9150620186a08211151561239357600080fd5b620186a0828115156123a157fe5b0491506123ef600854600960008773ffffffffffffffffffffffffffffffffffffffff1673ffffffffffffffffffffffffffffffffffffffff16815260200190815260200160002054613d3e565b6008819055506000600960008673ffffffffffffffffffffffffffffffffffffffff1673ffffffffffffffffffffffffffffffffffffffff16815260200190815260200160002081905550600260009054906101000a900473ffffffffffffffffffffffffffffffffffffffff1673ffffffffffffffffffffffffffffffffffffffff1663a9059cbb8a846040518363ffffffff167c0100000000000000000000000000000000000000000000000000000000028152600401808373ffffffffffffffffffffffffffffffffffffffff1673ffffffffffffffffffffffffffffffffffffffff16815260200182815260200192505050602060405180830381600087803b1580156124ff57600080fd5b505af1158015612513573d6000803e3d6000fd5b505050506040513d602081101561252957600080fd5b8101908080519060200190929190505050151561254257fe5b7fc2b4a290c20fb28939d29f102514fbffd2b73c059ffba8b78250c94161d5fcc6848a8486604051808573ffffffffffffffffffffffffffffffffffffffff1673ffffffffffffffffffffffffffffffffffffffff1681526020018473ffffffffffffffffffffffffffffffffffffffff1673ffffffffffffffffffffffffffffffffffffffff16815260200183815260200182815260200194505050505060405180910390a18890508073ffffffffffffffffffffffffffffffffffffffff1663ef6506db85846040518363ffffffff167c0100000000000000000000000000000000000000000000000000000000028152600401808373ffffffffffffffffffffffffffffffffffffffff1673ffffffffffffffffffffffffffffffffffffffff16815260200182815260200192505050602060405180830381600087803b15801561268f57600080fd5b505af11580156126a3573d6000803e3d6000fd5b505050506040513d60208110156126b957600080fd5b810190808051906020019092919050505015156126d257fe5b505050505050505050565b60096020528060005260406000206000915090505481565b6000600360003373ffffffffffffffffffffffffffffffffffffffff1673ffffffffffffffffffffffffffffffffffffffff16815260200190815260200160002060009054906101000a900460ff16156128c157600161283c878760405160200180836fffffffffffffffffffffffffffffffff166fffffffffffffffffffffffffffffffff167001000000000000000000000000000000000281526010018260ff1660ff167f0100000000000000000000000000000000000000000000000000000000000000028152600101925050506040516020818303038152906040526040518082805190602001908083835b60208310151561280a57805182526020820191506020810190506020830392506127e5565b6001836020036101000a03801982511681845116808217855250505050505090500191505060405180910390206142ce565b858585604051600081526020016040526040518085600019166000191681526020018460ff1660ff1681526020018360001916600019168152602001826000191660001916815260200194505050505060206040516020810390808403906000865af11580156128b0573d6000803e3d6000fd5b5050506020604051035190506128c5565b3390505b9695505050505050565b620186a081565b600d5481565b6000809054906101000a900473ffffffffffffffffffffffffffffffffffffffff1681565b6000806000600360003373ffffffffffffffffffffffffffffffffffffffff1673ffffffffffffffffffffffffffffffffffffffff16815260200190815260200160002060009054906101000a900460ff16151561295e57600080fd5b600060015411156129765762278d0042016001819055505b60018888600b60008c73ffffffffffffffffffffffffffffffffffffffff1673ffffffffffffffffffffffffffffffffffffffff16815260200190815260200160002054604051602001808473ffffffffffffffffffffffffffffffffffffffff1673ffffffffffffffffffffffffffffffffffffffff166c0100000000000000000000000002815260140183815260200182815260200193505050506040516020818303038152906040526040518082805190602001908083835b602083101515612a575780518252602082019150602081019050602083039250612a32565b6001836020036101000a0380198251168184511680821785525050505050509050019150506040518091039020878787604051600081526020016040526040518085600019166000191681526020018460ff1660ff1681526020018360001916600019168152602001826000191660001916815260200194505050505060206040516020810390808403906000865af1158015612af8573d6000803e3d6000fd5b505050602060405103519250600b60008973ffffffffffffffffffffffffffffffffffffffff1673ffffffffffffffffffffffffffffffffffffffff16815260200190815260200160002060008154809291906001019190505550612b5b613d81565b9150612b73612b6d88620186a0613e20565b83613d57565b9050612b8160075483613d57565b600781905550612bd0600960008573ffffffffffffffffffffffffffffffffffffffff1673ffffffffffffffffffffffffffffffffffffffff1681526020019081526020016000205482613d3e565b600960008573ffffffffffffffffffffffffffffffffffffffff1673ffffffffffffffffffffffffffffffffffffffff16815260200190815260200160002081905550612c1f60085482613d3e565b600881905550600260009054906101000a900473ffffffffffffffffffffffffffffffffffffffff1673ffffffffffffffffffffffffffffffffffffffff1663a9059cbb89896040518363ffffffff167c0100000000000000000000000000000000000000000000000000000000028152600401808373ffffffffffffffffffffffffffffffffffffffff1673ffffffffffffffffffffffffffffffffffffffff16815260200182815260200192505050602060405180830381600087803b158015612cea57600080fd5b505af1158015612cfe573d6000803e3d6000fd5b505050506040513d6020811015612d1457600080fd5b81019080805190602001909291905050501515612d2d57fe5b7fc2b4a290c20fb28939d29f102514fbffd2b73c059ffba8b78250c94161d5fcc683898985604051808573ffffffffffffffffffffffffffffffffffffffff1673ffffffffffffffffffffffffffffffffffffffff1681526020018473ffffffffffffffffffffffffffffffffffffffff1673ffffffffffffffffffffffffffffffffffffffff16815260200183815260200182815260200194505050505060405180910390a15050505050505050565b6000809054906101000a900473ffffffffffffffffffffffffffffffffffffffff1673ffffffffffffffffffffffffffffffffffffffff163373ffffffffffffffffffffffffffffffffffffffff16141515612e3957600080fd5b612e636000809054906101000a900473ffffffffffffffffffffffffffffffffffffffff16611936565b612e6c816131b5565b612e966000809054906101000a900473ffffffffffffffffffffffffffffffffffffffff166113c0565b612e9f81613318565b806000806101000a81548173ffffffffffffffffffffffffffffffffffffffff021916908373ffffffffffffffffffffffffffffffffffffffff16021790555050565b60015481565b600e5481565b60066020528060005260406000206000915090505481565b600080612f178989898989896126f5565b9150600090503373ffffffffffffffffffffffffffffffffffffffff168273ffffffffffffffffffffffffffffffffffffffff16141561315957600360006001848b8b604051602001808473ffffffffffffffffffffffffffffffffffffffff1673ffffffffffffffffffffffffffffffffffffffff166c01000000000000000000000000028152601401836fffffffffffffffffffffffffffffffff166fffffffffffffffffffffffffffffffff167001000000000000000000000000000000000281526010018260ff1660ff167f010000000000000000000000000000000000000000000000000000000000000002815260010193505050506040516020818303038152906040526040518082805190602001908083835b6020831015156130565780518252602082019150602081019050602083039250613031565b6001836020036101000a0380198251168184511680821785525050505050509050019150506040518091039020898989604051600081526020016040526040518085600019166000191681526020018460ff1660ff1681526020018360001916600019168152602001826000191660001916815260200194505050505060206040516020810390808403906000865af11580156130f7573d6000803e3d6000fd5b5050506020604051035173ffffffffffffffffffffffffffffffffffffffff1673ffffffffffffffffffffffffffffffffffffffff16815260200190815260200160002060009054906101000a900460ff16151561315457600080fd5b61317d565b821561317c57613167613d81565b905061317560075482613d57565b6007819055505b5b61318a828a898b85613e53565b505050505050505050565b60046020528060005260406000206000915054906101000a900460ff1681565b6000809054906101000a900473ffffffffffffffffffffffffffffffffffffffff1673ffffffffffffffffffffffffffffffffffffffff163373ffffffffffffffffffffffffffffffffffffffff1614151561321057600080fd5b6001600360008373ffffffffffffffffffffffffffffffffffffffff1673ffffffffffffffffffffffffffffffffffffffff16815260200190815260200160002060006101000a81548160ff02191690831515021790555050565b600f60009054906101000a900473ffffffffffffffffffffffffffffffffffffffff1681565b60036020528060005260406000206000915054906101000a900460ff1681565b600360003373ffffffffffffffffffffffffffffffffffffffff1673ffffffffffffffffffffffffffffffffffffffff16815260200190815260200160002060009054906101000a900460ff16151561330957600080fd5b620186a08102600c8190555050565b6000809054906101000a900473ffffffffffffffffffffffffffffffffffffffff1673ffffffffffffffffffffffffffffffffffffffff163373ffffffffffffffffffffffffffffffffffffffff1614151561337357600080fd5b6001600460008373ffffffffffffffffffffffffffffffffffffffff1673ffffffffffffffffffffffffffffffffffffffff16815260200190815260200160002060006101000a81548160ff02191690831515021790555050565b600360003373ffffffffffffffffffffffffffffffffffffffff1673ffffffffffffffffffffffffffffffffffffffff16815260200190815260200160002060009054906101000a900460ff16151561342657600080fd5b600a620186a081151561343557fe5b048110151561344357600080fd5b8060058190555050565b600e544201600a60003373ffffffffffffffffffffffffffffffffffffffff1673ffffffffffffffffffffffffffffffffffffffff16815260200190815260200160002081905550565b60075481565b6000600a60003373ffffffffffffffffffffffffffffffffffffffff1673ffffffffffffffffffffffffffffffffffffffff16815260200190815260200160002081905550565b600360003373ffffffffffffffffffffffffffffffffffffffff1673ffffffffffffffffffffffffffffffffffffffff16815260200190815260200160002060009054906101000a900460ff16151561353c57600080fd5b61354461129d565b811115151561355257600080fd5b600460008373ffffffffffffffffffffffffffffffffffffffff1673ffffffffffffffffffffffffffffffffffffffff16815260200190815260200160002060009054906101000a900460ff1615156135aa57600080fd5b600260009054906101000a900473ffffffffffffffffffffffffffffffffffffffff1673ffffffffffffffffffffffffffffffffffffffff1663a9059cbb83836040518363ffffffff167c0100000000000000000000000000000000000000000000000000000000028152600401808373ffffffffffffffffffffffffffffffffffffffff1673ffffffffffffffffffffffffffffffffffffffff16815260200182815260200192505050602060405180830381600087803b15801561366f57600080fd5b505af1158015613683573d6000803e3d6000fd5b505050506040513d602081101561369957600080fd5b810190808051906020019092919050505015156136b257fe5b5050565b600360003373ffffffffffffffffffffffffffffffffffffffff1673ffffffffffffffffffffffffffffffffffffffff16815260200190815260200160002060009054906101000a900460ff16151561370e57600080fd5b62015180811115151561372057600080fd5b80600e8190555050565b600080600f60009054906101000a900473ffffffffffffffffffffffffffffffffffffffff1673ffffffffffffffffffffffffffffffffffffffff163373ffffffffffffffffffffffffffffffffffffffff1614151561378957600080fd5b61379683620186a0613e20565b90506137e1600960008673ffffffffffffffffffffffffffffffffffffffff1673ffffffffffffffffffffffffffffffffffffffff1681526020019081526020016000205482613d57565b600960008673ffffffffffffffffffffffffffffffffffffffff1673ffffffffffffffffffffffffffffffffffffffff1681526020019081526020016000208190555061383060085482613d57565b6008819055507f90890809c654f11d6e72a28fa60149770a0d11ec6c92319d6ceb2bb0a4ea1a1584846000604051808473ffffffffffffffffffffffffffffffffffffffff1673ffffffffffffffffffffffffffffffffffffffff168152602001838152602001828152602001935050505060405180910390a1600191505092915050565b6000600360003373ffffffffffffffffffffffffffffffffffffffff1673ffffffffffffffffffffffffffffffffffffffff16815260200190815260200160002060009054906101000a900460ff16151561390f57600080fd5b620186a060075481151561391f57fe5b04905060008111151561392e57fe5b61393f600754620186a08302613d3e565b600781905550600260009054906101000a900473ffffffffffffffffffffffffffffffffffffffff1673ffffffffffffffffffffffffffffffffffffffff1663a9059cbb6000809054906101000a900473ffffffffffffffffffffffffffffffffffffffff16836040518363ffffffff167c0100000000000000000000000000000000000000000000000000000000028152600401808373ffffffffffffffffffffffffffffffffffffffff1673ffffffffffffffffffffffffffffffffffffffff16815260200182815260200192505050602060405180830381600087803b158015613a2b57600080fd5b505af1158015613a3f573d6000803e3d6000fd5b505050506040513d6020811015613a5557600080fd5b81019080805190602001909291905050501515613a6e57fe5b50565b6000809054906101000a900473ffffffffffffffffffffffffffffffffffffffff1673ffffffffffffffffffffffffffffffffffffffff163373ffffffffffffffffffffffffffffffffffffffff16141515613acc57600080fd5b6000600181905550565b60055481565b600080600188888860405160200180848051906020019060200280838360005b83811015613b17578082015181840152602081019050613afc565b50505050905001838051906020019060200280838360005b83811015613b4a578082015181840152602081019050613b2f565b50505050905001828051906020019060200280838360005b83811015613b7d578082015181840152602081019050613b62565b5050505090500193505050506040516020818303038152906040526040518082805190602001908083835b602083101515613bcd5780518252602082019150602081019050602083039250613ba8565b6001836020036101000a0380198251168184511680821785525050505050509050019150506040518091039020868686604051600081526020016040526040518085600019166000191681526020018460ff1660ff1681526020018360001916600019168152602001826000191660001916815260200194505050505060206040516020810390808403906000865af1158015613c6e573d6000803e3d6000fd5b505050602060405103519050600360003373ffffffffffffffffffffffffffffffffffffffff1673ffffffffffffffffffffffffffffffffffffffff16815260200190815260200160002060009054906101000a900460ff1615613cd457809150613d33565b600360008273ffffffffffffffffffffffffffffffffffffffff1673ffffffffffffffffffffffffffffffffffffffff16815260200190815260200160002060009054906101000a900460ff1615613d2e57339150613d33565b600080fd5b509695505050505050565b6000828211151515613d4c57fe5b818303905092915050565b6000808284019050838110158015613d6f5750828110155b1515613d7757fe5b8091505092915050565b6000633b9aca00613e11613e0b6006600080357fffffffff00000000000000000000000000000000000000000000000000000000167bffffffffffffffffffffffffffffffffffffffffffffffffffffffff19167bffffffffffffffffffffffffffffffffffffffffffffffffffffffff1916815260200190815260200160002054600554613e20565b3a613e20565b811515613e1a57fe5b04905090565b60008082840290506000841480613e415750828482811515613e3e57fe5b04145b1515613e4957fe5b8091505092915050565b600080601060008873ffffffffffffffffffffffffffffffffffffffff1673ffffffffffffffffffffffffffffffffffffffff1681526020019081526020016000209150613eb487878460000160109054906101000a9004600f0b86614389565b9050606060405190810160405280856fffffffffffffffffffffffffffffffff16815260200187600f0b81526020018660ff16815250601060008973ffffffffffffffffffffffffffffffffffffffff1673ffffffffffffffffffffffffffffffffffffffff16815260200190815260200160002060008201518160000160006101000a8154816fffffffffffffffffffffffffffffffff02191690836fffffffffffffffffffffffffffffffff16021790555060208201518160000160106101000a8154816fffffffffffffffffffffffffffffffff0219169083600f0b6fffffffffffffffffffffffffffffffff16021790555060408201518160010160006101000a81548160ff021916908360ff1602179055509050507fbbddc02bfa2e7cedacea185a3820c053215b120e102dd6de97b11d4ba8897ab88785888487604051808673ffffffffffffffffffffffffffffffffffffffff1673ffffffffffffffffffffffffffffffffffffffff168152602001856fffffffffffffffffffffffffffffffff166fffffffffffffffffffffffffffffffff16815260200184600f0b600f0b81526020018381526020018281526020019550505050505060405180910390a150505050505050565b6000600154141561409c5762278d0042016001819055505b4260015410806140ac5750600081145b156142cb57600260009054906101000a900473ffffffffffffffffffffffffffffffffffffffff1673ffffffffffffffffffffffffffffffffffffffff1663a9059cbb6000809054906101000a900473ffffffffffffffffffffffffffffffffffffffff16600260009054906101000a900473ffffffffffffffffffffffffffffffffffffffff1673ffffffffffffffffffffffffffffffffffffffff166370a08231306040518263ffffffff167c0100000000000000000000000000000000000000000000000000000000028152600401808273ffffffffffffffffffffffffffffffffffffffff1673ffffffffffffffffffffffffffffffffffffffff168152602001915050602060405180830381600087803b1580156141ce57600080fd5b505af11580156141e2573d6000803e3d6000fd5b505050506040513d60208110156141f857600080fd5b81019080805190602001909291905050506040518363ffffffff167c0100000000000000000000000000000000000000000000000000000000028152600401808373ffffffffffffffffffffffffffffffffffffffff1673ffffffffffffffffffffffffffffffffffffffff16815260200182815260200192505050602060405180830381600087803b15801561428e57600080fd5b505af11580156142a2573d6000803e3d6000fd5b505050506040513d60208110156142b857600080fd5b8101908080519060200190929190505050505b50565b60008160405160200180807f19457468657265756d205369676e6564204d6573736167653a0a333200000000815250601c0182600019166000191681526020019150506040516020818303038152906040526040518082805190602001908083835b6020831015156143555780518252602082019150602081019050602083039250614330565b6001836020036101000a03801982511681845116808217855250505050505090500191505060405180910390209050919050565b600080600061439e86600f0b86600f0b6143ed565b92506143aa83856143ed565b915060008212156143df577fffffffffffffffffffffffffffffffffffffffffffffffffffffffffffffffff820290506143e3565b8190505b5050949350505050565b600080821215614409578282840313151561440457fe5b614418565b828284031315151561441757fe5b5b8183039050929150505600a165627a7a7230582058bb6abf44814daa303073ad65781177bd729adbe5e8dafcf0a8fb5891500f760029",
  "source": "/**\n * The edgeless casino contract v2 holds the players's funds and provides state channel functionality.\n * The casino has at no time control over the players's funds.\n * State channels can be updated and closed from both parties: the player and the casino.\n * author: Julia Altenried\n **/\n\npragma solidity >=0.4.24 <0.6.0;\n\ncontract SafeMath {\n\n\tfunction safeSub(uint a, uint b) pure internal returns(uint) {\n\t\tassert(b <= a);\n\t\treturn a - b;\n\t}\n\t\n\tfunction safeSub(int a, int b) pure internal returns(int) {\n\t\tif(b < 0) assert(a - b > a);\n\t\telse assert(a - b <= a);\n\t\treturn a - b;\n\t}\n\n\tfunction safeAdd(uint a, uint b) pure internal returns(uint) {\n\t\tuint c = a + b;\n\t\tassert(c >= a && c >= b);\n\t\treturn c;\n\t}\n\n\tfunction safeMul(uint a, uint b) pure internal returns (uint) {\n\t\tuint c = a * b;\n\t\tassert(a == 0 || c / a == b);\n\t\treturn c;\n\t}\n}\n\n\ncontract Token {\n\tfunction transferFrom(address sender, address receiver, uint amount) public returns(bool success);\n\n\tfunction transfer(address receiver, uint amount) public returns(bool success);\n\n\tfunction balanceOf(address holder) public view returns(uint);\n}\n\ncontract Owned {\n  address public owner;\n  modifier onlyOwner {\n    require(msg.sender == owner);\n    _;\n  }\n\n  constructor() public{\n    owner = msg.sender;\n  }\n\n}\n\n/** owner should be able to close the contract is nobody has been using it for at least 30 days */\ncontract Mortal is Owned {\n\t/** contract can be closed by the owner anytime after this timestamp if non-zero */\n\tuint public closeAt;\n\t/** the edgeless token contract */\n\tToken edg;\n\t\n\tconstructor(address tokenContract) internal{\n\t\tedg = Token(tokenContract);\n\t}\n\t/**\n\t* lets the owner close the contract if there are no player funds on it or if nobody has been using it for at least 30 days\n\t*/\n  function closeContract(uint playerBalance) internal{\n\t\tif(closeAt == 0) closeAt = now + 30 days;\n\t\tif(closeAt < now || playerBalance == 0){\n\t\t\tedg.transfer(owner, edg.balanceOf(address(this)));\n\t\t} \n  }\n\n\t/**\n\t* in case close has been called accidentally.\n\t**/\n\tfunction open() onlyOwner public{\n\t\tcloseAt = 0;\n\t}\n\n\t/**\n\t* make sure the contract is not in process of being closed.\n\t**/\n\tmodifier isAlive {\n\t\trequire(closeAt == 0);\n\t\t_;\n\t}\n\n\t/**\n\t* delays the time of closing.\n\t**/\n\tmodifier keepAlive {\n\t\tif(closeAt > 0) closeAt = now + 30 days;\n\t\t_;\n\t}\n}\n\ncontract RequiringAuthorization is Mortal {\n\t/** indicates if an address is authorized to act in the casino's name  */\n\tmapping(address => bool) public authorized;\n\t/** tells if an address is allowed to receive funds from the bankroll **/\n\tmapping(address => bool) public allowedReceiver;\n\n\tmodifier onlyAuthorized {\n\t\trequire(authorized[msg.sender]);\n\t\t_;\n\t}\n\n\t/**\n\t * Constructor. Authorize the owner.\n\t * */\n\tconstructor() internal {\n\t\tauthorized[msg.sender] = true;\n\t\tallowedReceiver[msg.sender] = true;\n\t}\n\n\t/**\n\t * authorize a address to call game functions and set configs.\n\t * @param addr the address to be authorized\n\t **/\n\tfunction authorize(address addr) public onlyOwner {\n\t\tauthorized[addr] = true;\n\t}\n\n\t/**\n\t * deauthorize a address to call game functions and set configs.\n\t * @param addr the address to be deauthorized\n\t **/\n\tfunction deauthorize(address addr) public onlyOwner {\n\t\tauthorized[addr] = false;\n\t}\n\n\t/**\n\t * allow authorized wallets to withdraw funds from the bonkroll to this address\n\t * @param receiver the receiver's address\n\t * */\n\tfunction allowReceiver(address receiver) public onlyOwner {\n\t\tallowedReceiver[receiver] = true;\n\t}\n\n\t/**\n\t * disallow authorized wallets to withdraw funds from the bonkroll to this address\n\t * @param receiver the receiver's address\n\t * */\n\tfunction disallowReceiver(address receiver) public onlyOwner {\n\t\tallowedReceiver[receiver] = false;\n\t}\n\n\t/**\n\t * changes the owner of the contract. revokes authorization of the old owner and authorizes the new one.\n\t * @param newOwner the address of the new owner\n\t * */\n\tfunction changeOwner(address newOwner) public onlyOwner {\n\t\tdeauthorize(owner);\n\t\tauthorize(newOwner);\n\t\tdisallowReceiver(owner);\n\t\tallowReceiver(newOwner);\n\t\towner = newOwner;\n\t}\n}\n\ncontract ChargingGas is RequiringAuthorization, SafeMath {\n\t/** 1 EDG has 5 decimals **/\n\tuint public constant oneEDG = 100000;\n\t/** the price per kgas and GWei in tokens (with decimals) */\n\tuint public gasPrice;\n\t/** the amount of gas used per transaction in kGas */\n\tmapping(bytes4 => uint) public gasPerTx;\n\t/** the number of tokens (5 decimals) payed by the users to cover the gas cost */\n\tuint public gasPayback;\n\t\n\tconstructor(uint kGasPrice) internal{\n\t\t//deposit, withdrawFor, updateChannel, updateBatch, transferToNewContract\n\t    bytes4[5] memory signatures = [bytes4(0x3edd1128),0x9607610a, 0xde48ff52, 0xc97b6d1f, 0x6bf06fde];\n\t    //amount of gas consumed by the above methods in GWei\n\t    uint[5] memory gasUsage = [uint(146), 100, 65, 50, 85];\n\t    setGasUsage(signatures, gasUsage);\n\t    setGasPrice(kGasPrice);\n\t}\n\t/**\n\t * sets the amount of gas consumed by methods with the given sigantures.\n\t * only called from the edgeless casino constructor.\n\t * @param signatures an array of method-signatures\n\t *        gasNeeded  the amount of gas consumed by these methods\n\t * */\n\tfunction setGasUsage( bytes4[5] memory signatures, uint[5] memory gasNeeded) public onlyOwner {\n\t\trequire(signatures.length == gasNeeded.length);\n\t\tfor (uint8 i = 0; i < signatures.length; i++)\n\t\t\tgasPerTx[signatures[i]] = gasNeeded[i];\n\t}\n\n\t/**\n\t * updates the price per 1000 gas in EDG.\n\t * @param price the new gas price (with decimals, max 0.1 EDG)\n\t **/\n\tfunction setGasPrice(uint price) public onlyAuthorized {\n\t\trequire(price < oneEDG/10);\n\t\tgasPrice = price;\n\t}\n\n\t/**\n\t * returns the gas cost of the called function.\n\t * */\n\tfunction getGasCost() internal view returns(uint) {\n\t\treturn safeMul(safeMul(gasPerTx[msg.sig], gasPrice), tx.gasprice) / 1000000000;\n\t}\n\n}\n\n\ncontract CasinoBank is ChargingGas {\n\t/** the total balance of all players with virtual decimals **/\n\tuint public playerBalance;\n\t/** the balance per player in edgeless tokens with virtual decimals */\n\tmapping(address => uint) public balanceOf;\n\t/** in case the user wants/needs to call the withdraw function from his own wallet, he first needs to request a withdrawal */\n\tmapping(address => uint) public withdrawAfter;\n\t/** a number to count withdrawal signatures to ensure each signature is different even if withdrawing the same amount to the same address */\n\tmapping(address => uint) public withdrawCount;\n\t/** the maximum amount of tokens the user is allowed to deposit (with decimals) */\n\tuint public maxDeposit;\n\t/** the maximum withdrawal of tokens the user is allowed to withdraw on one day (only enforced when the tx is not sent from an authorized wallet) **/\n\tuint public maxWithdrawal;\n\t/** waiting time for withdrawal if not requested via the server **/\n\tuint public waitingTime;\n\t/** the address of the predecessor **/\n\taddress public predecessor;\n\n\t/** informs listeners how many tokens were deposited for a player */\n\tevent Deposit(address _player, uint _numTokens, uint _gasCost);\n\t/** informs listeners how many tokens were withdrawn from the player to the receiver address */\n\tevent Withdrawal(address _player, address _receiver, uint _numTokens, uint _gasCost);\n\t\n\t\n\t/**\n\t * Constructor.\n\t * @param depositLimit    the maximum deposit allowed\n\t *\t\t  predecessorAddr the address of the predecessing contract\n\t * */\n\tconstructor(uint depositLimit, address predecessorAddr) internal {\n\t\tmaxDeposit = depositLimit * oneEDG;\n\t\tmaxWithdrawal = maxDeposit;\n\t\twaitingTime = 24 hours;\n\t\tpredecessor = predecessorAddr;\n\t}\n\n\t/**\n        * accepts deposits for an arbitrary address.\n        * retrieves tokens from the message sender and adds them to the balance of the specified address.\n        * edgeless tokens do not have any decimals, but are represented on this contract with decimals.\n        * @param receiver  address of the receiver\n        *        numTokens number of tokens to deposit (0 decimals)\n        *\t\t\t\t chargeGas indicates if the gas cost is subtracted from the user's edgeless token balance\n\t **/\n\tfunction deposit(address receiver, uint numTokens, bool chargeGas) public isAlive {\n\t\trequire(numTokens > 0);\n\t\tuint value = safeMul(numTokens, oneEDG);\n\t\tuint gasCost;\n\t\tif (chargeGas) {\n\t\t\tgasCost = getGasCost();\n\t\t\tvalue = safeSub(value, gasCost);\n\t\t\tgasPayback = safeAdd(gasPayback, gasCost);\n\t\t}\n\t\tuint newBalance = safeAdd(balanceOf[receiver], value);\n\t\trequire(newBalance <= maxDeposit);\n\t\tassert(edg.transferFrom(msg.sender, address(this), numTokens));\n\t\tbalanceOf[receiver] = newBalance;\n\t\tplayerBalance = safeAdd(playerBalance, value);\n\t\temit Deposit(receiver, numTokens, gasCost);\n\t}\n\n\t/**\n\t * If the user wants/needs to withdraw his funds himself, he needs to request the withdrawal first.\n\t * This method sets the earliest possible withdrawal date to 'waitingTime from now (default 90m, but up to 24h).\n\t * Reason: The user should not be able to withdraw his funds, while the the last game methods have not yet been mined.\n\t **/\n\tfunction requestWithdrawal() public {\n\t\twithdrawAfter[msg.sender] = now + waitingTime;\n\t}\n\n\t/**\n\t * In case the user requested a withdrawal and changes his mind.\n\t * Necessary to be able to continue playing.\n\t **/\n\tfunction cancelWithdrawalRequest() public {\n\t\twithdrawAfter[msg.sender] = 0;\n\t}\n\n\t/**\n\t * withdraws an amount from the user balance if the waiting time passed since the request.\n\t * @param amount the amount of tokens to withdraw\n\t **/\n\tfunction withdraw(uint amount) public keepAlive {\n\t\trequire(amount <= maxWithdrawal);\n\t\trequire(withdrawAfter[msg.sender] > 0 && now > withdrawAfter[msg.sender]);\n\t\twithdrawAfter[msg.sender] = 0;\n\t\tuint value = safeMul(amount, oneEDG);\n\t\tbalanceOf[msg.sender] = safeSub(balanceOf[msg.sender], value);\n\t\tplayerBalance = safeSub(playerBalance, value);\n\t\tassert(edg.transfer(msg.sender, amount));\n\t\temit Withdrawal(msg.sender, msg.sender, amount, 0);\n\t}\n\n\t/**\n\t * lets the owner withdraw from the bankroll\n\t * @param receiver the receiver's address\n\t *\t\t\t\tnumTokens the number of tokens to withdraw (0 decimals)\n\t **/\n\tfunction withdrawBankroll(address receiver, uint numTokens) public onlyAuthorized {\n\t\trequire(numTokens <= bankroll());\n\t\trequire(allowedReceiver[receiver]);\n\t\tassert(edg.transfer(receiver, numTokens));\n\t}\n\n\t/**\n\t * withdraw the gas payback to the owner\n\t **/\n\tfunction withdrawGasPayback() public onlyAuthorized {\n\t\tuint payback = gasPayback / oneEDG;\n\t\tassert(payback > 0);\n\t\tgasPayback = safeSub(gasPayback, payback * oneEDG);\n\t\tassert(edg.transfer(owner, payback));\n\t}\n\n\t/**\n\t * returns the current bankroll in tokens with 0 decimals\n\t **/\n\tfunction bankroll() view public returns(uint) {\n\t\treturn safeSub(edg.balanceOf(address(this)), safeAdd(playerBalance, gasPayback) / oneEDG);\n\t}\n\n\n\t/**\n\t * updates the maximum deposit.\n\t * @param newMax the new maximum deposit (0 decimals)\n\t **/\n\tfunction setMaxDeposit(uint newMax) public onlyAuthorized {\n\t\tmaxDeposit = newMax * oneEDG;\n\t}\n\t\n\t/**\n\t * updates the maximum withdrawal.\n\t * @param newMax the new maximum withdrawal (0 decimals)\n\t **/\n\tfunction setMaxWithdrawal(uint newMax) public onlyAuthorized {\n\t\tmaxWithdrawal = newMax * oneEDG;\n\t}\n\n\t/**\n\t * sets the time the player has to wait for his funds to be unlocked before withdrawal (if not withdrawing with help of the casino server).\n\t * the time may not be longer than 24 hours.\n\t * @param newWaitingTime the new waiting time in seconds\n\t * */\n\tfunction setWaitingTime(uint newWaitingTime) public onlyAuthorized  {\n\t\trequire(newWaitingTime <= 24 hours);\n\t\twaitingTime = newWaitingTime;\n\t}\n\n\t/**\n\t * transfers an amount from the contract balance to the owner's wallet.\n\t * @param receiver the receiver address\n\t *\t\t\t\t amount   the amount of tokens to withdraw (0 decimals)\n\t *\t\t\t\t v,r,s \t\tthe signature of the player\n\t **/\n\tfunction withdrawFor(address receiver, uint amount, uint8 v, bytes32 r, bytes32 s) public onlyAuthorized keepAlive {\n\t\taddress player = ecrecover(keccak256(abi.encodePacked(receiver, amount, withdrawCount[receiver])), v, r, s);\n\t\twithdrawCount[receiver]++;\n\t\tuint gasCost = getGasCost();\n\t\tuint value = safeAdd(safeMul(amount, oneEDG), gasCost);\n\t\tgasPayback = safeAdd(gasPayback, gasCost);\n\t\tbalanceOf[player] = safeSub(balanceOf[player], value);\n\t\tplayerBalance = safeSub(playerBalance, value);\n\t\tassert(edg.transfer(receiver, amount));\n\t\temit Withdrawal(player, receiver, amount, gasCost);\n\t}\n\t\n\t/**\n\t * transfers the player's tokens directly to the new casino contract after an update.\n\t * @param newCasino the address of the new casino contract\n\t *\t\t  v, r, s   the signature of the player\n\t *\t\t  chargeGas indicates if the gas cost is payed by the player.\n\t * */\n\tfunction transferToNewContract(address newCasino, uint8 v, bytes32 r, bytes32 s, bool chargeGas) public onlyAuthorized keepAlive {\n\t\taddress player = ecrecover(keccak256(abi.encodePacked(address(this), newCasino)), v, r, s);\n\t\tuint gasCost = 0;\n\t\tif(chargeGas) gasCost = getGasCost();\n\t\tuint value = safeSub(balanceOf[player], gasCost);\n\t\trequire(value > oneEDG);\n\t\t//fractions of one EDG cannot be withdrawn \n\t\tvalue /= oneEDG;\n\t\tplayerBalance = safeSub(playerBalance, balanceOf[player]);\n\t\tbalanceOf[player] = 0;\n\t\tassert(edg.transfer(newCasino, value));\n\t\temit Withdrawal(player, newCasino, value, gasCost);\n\t\tCasinoBank cb = CasinoBank(newCasino);\n\t\tassert(cb.credit(player, value));\n\t}\n\t\n\t/**\n\t * receive a player balance from the predecessor contract.\n\t * @param player the address of the player to credit the value for\n\t *\t\t\t\tvalue  the number of tokens to credit (0 decimals)\n\t * */\n\tfunction credit(address player, uint value) public returns(bool) {\n\t\trequire(msg.sender == predecessor);\n\t\tuint valueWithDecimals = safeMul(value, oneEDG);\n\t\tbalanceOf[player] = safeAdd(balanceOf[player], valueWithDecimals);\n\t\tplayerBalance = safeAdd(playerBalance, valueWithDecimals);\n\t\temit Deposit(player, value, 0);\n\t\treturn true;\n\t}\n\n\t/**\n\t * lets the owner close the contract if there are no player funds on it or if nobody has been using it for at least 30 days\n\t * */\n\tfunction close() public onlyOwner {\n\t\tcloseContract(playerBalance);\n\t}\n}\n\n\ncontract CasinoProtocolStates is CasinoBank{\n\t/** the most recent known state of a state channel */\n\tmapping(address => State) public lastState;\n\t/** fired when the state is updated */\n\tevent StateUpdate(address player, uint128 count, int128 winBalance, int difference, uint gasCost);\n  /** fired if one of the parties chooses to log the seeds and results */\n  event GameData(address player, bytes32[] serverSeeds, bytes32[] clientSeeds, int[] results, uint gasCost);\n  \n\tstruct State{\n\t\tuint128 count;\n\t\tint128 winBalance;\n\t\tuint8 category;\n\t}\n\n\n  /**\n  * creates a new edgeless casino contract.\n  * @param predecessorAddress the address of the predecessing contract\n\t*\t\t\t\t tokenContract      the address of the Edgeless token contract\n\t* \t\t\t depositLimit       the maximum deposit allowed\n\t* \t\t\t kGasPrice\t\t\tthe price per kGas in WEI\n  **/\n  constructor(address predecessorAddress, address tokenContract, uint depositLimit, uint kGasPrice) CasinoBank(depositLimit, predecessorAddress) Mortal(tokenContract) ChargingGas(kGasPrice) public{\n\n  }\n  \n  /**\n   * updates several state channels at once. can be called by authorized wallets only.\n   * 1. determines the player address from the signature.\n   * 2. verifies if the signed game-count is higher than the last known game-count of this channel.\n   * 3. updates the balances accordingly. This means: It checks the already performed updates for this channel and computes\n   *    the new balance difference to add or subtract from the players balance.\n   * @param winBalances array of the current wins or losses\n   *\t\t\t\tnonces  array of the numbers of signed game moves\n   *\t\t\t\tv,r,s       array of the players's signatures\n   *        chargeGas   indicates if the gas costs should be subtracted from the players's balances\n   * */\n  function updateBatch(int128[] memory winBalances,  uint128[] memory nonces, uint8[] memory categories, uint8[] memory v, bytes32[] memory r, bytes32[] memory s, bool chargeGas) public onlyAuthorized{\n    require(winBalances.length == nonces.length);\n    require(winBalances.length == v.length);\n    require(winBalances.length == r.length);\n    require(winBalances.length == s.length);\n    require(winBalances.length <= 50);\n    address player;\n    uint gasCost = 0;\n    if(chargeGas) \n      gasCost = getGasCost();\n    gasPayback = safeAdd(gasPayback, safeMul(gasCost, winBalances.length));\n    for(uint8 i = 0; i < winBalances.length; i++){\n      player = ecrecover(keccak256(abi.encodePacked(nonces[i], categories[i])), v[i], r[i], s[i]);\n      _updateState(player, winBalances[i], categories[i], nonces[i], gasCost);\n    }\n  }\n\n  /**\n   * updates a state channel. can be called by both parties.\n   * 1. verifies the signature.\n   * 2. verifies if the signed game-count is higher than the last known game-count of this channel.\n   * 3. updates the balances accordingly. This means: It checks the already performed updates for this channel and computes\n   *    the new balance difference to add or subtract from the players balance.\n   * @param winBalance the current win or loss\n   *\t\t\t\tnonce  the number of signed game moves\n   *\t\t\t\tv,r,s      the signature of either the casino or the player\n   *        chargeGas  indicates if the gas costs should be subtracted from the player's balance\n   * */\n  function updateState(int128 winBalance,  uint128 nonce, uint8 category, uint8 v, bytes32 r, bytes32 s, bool chargeGas) public{\n  \taddress player = determinePlayer(winBalance, nonce, category, v, r, s);\n  \tuint gasCost = 0;\n  \tif(player == msg.sender)//if the player closes the state channel himself, make sure the signer is a casino wallet\n  \t\trequire(authorized[ecrecover(keccak256(abi.encodePacked(player, nonce, category)), v, r, s)]);\n  \telse if (chargeGas){//subtract the gas costs from the player balance only if the casino wallet is the sender\n  \t\tgasCost = getGasCost();\n  \t\tgasPayback = safeAdd(gasPayback, gasCost);\n  \t}\n  \t_updateState(player, winBalance, category, nonce, gasCost);\n  }\n  \n\t/**\n\t* internal method to perform the actual state update.\n\t* @param player the player address\n\t*        winBalance the player's win balance\n\t*        nonce  the player's game count\n\t* */\n\tfunction _updateState(address player, int128 winBalance, uint8 category, uint128 nonce, uint gasCost) internal {\n\t\tState storage last = lastState[player];\n\t\tint difference = updatePlayerBalance(player, winBalance, last.winBalance, gasCost);\n\t\tlastState[player] = State(nonce, winBalance, category);\n\t\temit StateUpdate(player, nonce, winBalance, difference, gasCost);\n\t}\n\n  /**\n   * determines if the msg.sender or the signer of the passed signature is the player. returns the player's address\n   * @param winBalance the current winBalance, used to calculate the msg hash\n   *\t\t\t\tnonce  the current nonce, used to calculate the msg.hash\n   *\t\t\t\tv, r, s    the signature of the non-sending party\n   * */\n  \tfunction determinePlayer(int128 winBalance, uint128 nonce, uint8 category, uint8 v, bytes32 r, bytes32 s) public view returns(address){\n\t\t\tif (authorized[msg.sender])  //casino is the sender -> player is the signer\n\t\t\t\treturn ecrecover(prefixed(keccak256(abi.encodePacked(nonce, category))), v, r, s);\n\t\t\telse\n\t\t\t\treturn msg.sender;\n  \t}\n\n\t   /// builds a prefixed hash to mimic the behavior of eth_sign.\n    function prefixed(bytes32 _hash) internal pure returns (bytes32) {\n        return keccak256(abi.encodePacked(\"\\x19Ethereum Signed Message:\\n32\", _hash));\n    }\n\n\t/**\n\t * computes the difference of the win balance relative to the last known state and adds it to the player's balance.\n\t * in case the casino is the sender, the gas cost in EDG gets subtracted from the player's balance.\n\t * @param player the address of the player\n\t *\t\t\t\twinBalance the current win-balance\n\t *\t\t\t\tlastWinBalance the win-balance of the last known state\n\t *\t\t\t\tgasCost the gas cost of the tx\n\t * */\n\tfunction updatePlayerBalance(address player, int128 winBalance, int128 lastWinBalance, uint gasCost) internal returns(int difference){\n\t\tdifference = safeSub(winBalance, lastWinBalance);\n\t\tint outstanding = safeSub(difference, int(gasCost));\n\t\tuint outs;\n\t\tif(outstanding < 0){\n            outs = uint256(outstanding * (-1));\n            //playerBalance = safeSub(playerBalance, outs);\n            //balanceOf[player] = safeSub(balanceOf[player], outs);\n\t\t} else {\n            outs = uint256(outstanding);\n            //assert(bankroll() * oneEDG > outs);\n            //playerBalance = safeAdd(playerBalance, outs);\n            //balanceOf[player] = safeAdd(balanceOf[player], outs);\n\t\t} \n\t}\n  \n  /**\n   * logs some seeds and game results for players wishing to have their game history logged by the contract\n   * @param serverSeeds array containing the server seeds\n   *        clientSeeds array containing the client seeds\n   *        results     array containing the results\n   *        v, r, s     the signature of the non-sending party (to make sure the correct results are logged)\n   * */\n\tfunction logGameData(bytes32[] memory serverSeeds, bytes32[] memory clientSeeds, int[] memory results, uint8 v, bytes32 r, bytes32 s) public{\n\t\taddress player = determinePlayer(serverSeeds, clientSeeds, results, v, r, s);\n\t\tuint gasCost;\n\t\t//charge gas in case the server is logging the results for the player\n\t\tif(player != msg.sender){\n\t\tgasCost = (57 + 768 * serverSeeds.length / 1000)*gasPrice;\n\t\tbalanceOf[player] = safeSub(balanceOf[player], gasCost);\n\t\tplayerBalance = safeSub(playerBalance, gasCost);\n\t\tgasPayback = safeAdd(gasPayback, gasCost);\n\t\t}\n\t\temit GameData(player, serverSeeds, clientSeeds, results, gasCost);\n\t}\n  \n  /**\n   * determines if the msg.sender or the signer of the passed signature is the player. returns the player's address\n   * @param serverSeeds array containing the server seeds\n   *        clientSeeds array containing the client seeds\n   *        results     array containing the results\n   *\t\t\t\tv, r, s    the signature of the non-sending party\n   * */\n  function determinePlayer(bytes32[] memory serverSeeds, bytes32[] memory clientSeeds, int[] memory results, uint8 v, bytes32 r, bytes32 s) view internal returns(address){\n  \taddress signer = ecrecover(keccak256(abi.encodePacked(serverSeeds, clientSeeds, results)), v, r, s);\n  \tif (authorized[msg.sender])//casino is the sender -> player is the signer\n  \t\treturn signer;\n  \telse if (authorized[signer])\n  \t\treturn msg.sender;\n  \telse \n  \t  revert();\n  }\n\n}",
  "sourcePath": "/Users/ruipedro/Desktop/BetProtocol/Blockchain/Ethereum/contracts/CasinoStatesV1.sol",
  "compiler": {
    "name": "solc",
    "version": "0.4.24+commit.e67f0147.Emscripten.clang"
  },
  "schemaVersion": "2.0.1",
  "updatedAt": "2019-04-06T16:59:16.022Z"
}